{
  "_format": "hh-sol-artifact-1",
  "contractName": "MerkleAnchor",
  "sourceName": "contracts/MerkleAnchor.sol",
  "abi": [
    {
      "anonymous": false,
      "inputs": [
        {
          "indexed": true,
          "internalType": "bytes32",
          "name": "dataHash",
          "type": "bytes32"
        },
        {
          "indexed": true,
          "internalType": "uint256",
          "name": "batchId",
          "type": "uint256"
        },
        {
          "indexed": false,
          "internalType": "bool",
          "name": "isValid",
          "type": "bool"
        }
      ],
      "name": "DataVerified",
      "type": "event"
    },
    {
      "anonymous": false,
      "inputs": [
        {
          "indexed": true,
          "internalType": "uint256",
          "name": "batchId",
          "type": "uint256"
        },
        {
          "indexed": true,
          "internalType": "bytes32",
          "name": "merkleRoot",
          "type": "bytes32"
        },
        {
          "indexed": false,
          "internalType": "uint256",
          "name": "batchSize",
          "type": "uint256"
        },
        {
          "indexed": true,
          "internalType": "address",
          "name": "submitter",
          "type": "address"
        },
        {
          "indexed": false,
          "internalType": "uint256",
          "name": "timestamp",
          "type": "uint256"
        }
      ],
      "name": "MerkleRootAnchored",
      "type": "event"
    },
    {
      "inputs": [
        {
          "internalType": "bytes32",
          "name": "merkleRoot",
          "type": "bytes32"
        },
        {
          "internalType": "uint256",
          "name": "batchSize",
          "type": "uint256"
        },
        {
          "internalType": "string",
          "name": "metadata",
          "type": "string"
        }
      ],
      "name": "anchorMerkleRoot",
      "outputs": [
        {
          "internalType": "uint256",
          "name": "",
          "type": "uint256"
        }
      ],
      "stateMutability": "nonpayable",
      "type": "function"
    },
    {
      "inputs": [
        {
          "internalType": "uint256",
          "name": "",
          "type": "uint256"
        }
      ],
      "name": "batches",
      "outputs": [
        {
          "internalType": "bytes32",
          "name": "merkleRoot",
          "type": "bytes32"
        },
        {
          "internalType": "uint256",
          "name": "timestamp",
          "type": "uint256"
        },
        {
          "internalType": "uint256",
          "name": "batchSize",
          "type": "uint256"
        },
        {
          "internalType": "address",
          "name": "submitter",
          "type": "address"
        },
        {
          "internalType": "string",
          "name": "batchMetadata",
          "type": "string"
        }
      ],
      "stateMutability": "view",
      "type": "function"
    },
    {
      "inputs": [],
      "name": "currentBatchId",
      "outputs": [
        {
          "internalType": "uint256",
          "name": "",
          "type": "uint256"
        }
      ],
      "stateMutability": "view",
      "type": "function"
    },
    {
      "inputs": [
        {
          "internalType": "uint256",
          "name": "batchId",
          "type": "uint256"
        }
      ],
      "name": "getBatch",
      "outputs": [
        {
          "components": [
            {
              "internalType": "bytes32",
              "name": "merkleRoot",
              "type": "bytes32"
            },
            {
              "internalType": "uint256",
              "name": "timestamp",
              "type": "uint256"
            },
            {
              "internalType": "uint256",
              "name": "batchSize",
              "type": "uint256"
            },
            {
              "internalType": "address",
              "name": "submitter",
              "type": "address"
            },
            {
              "internalType": "string",
              "name": "batchMetadata",
              "type": "string"
            }
          ],
          "internalType": "struct MerkleAnchor.DataBatch",
          "name": "",
          "type": "tuple"
        }
      ],
      "stateMutability": "view",
      "type": "function"
    },
    {
      "inputs": [
        {
          "internalType": "bytes32",
          "name": "merkleRoot",
          "type": "bytes32"
        }
      ],
      "name": "getBatchIdByRoot",
      "outputs": [
        {
          "internalType": "uint256",
          "name": "",
          "type": "uint256"
        }
      ],
      "stateMutability": "view",
      "type": "function"
    },
    {
      "inputs": [],
      "name": "getTotalDataAnchored",
      "outputs": [
        {
          "internalType": "uint256",
          "name": "",
          "type": "uint256"
        }
      ],
      "stateMutability": "view",
      "type": "function"
    },
    {
      "inputs": [
        {
          "internalType": "bytes32",
          "name": "",
          "type": "bytes32"
        }
      ],
      "name": "rootToBatchId",
      "outputs": [
        {
          "internalType": "uint256",
          "name": "",
          "type": "uint256"
        }
      ],
      "stateMutability": "view",
      "type": "function"
    },
    {
      "inputs": [],
      "name": "totalDataAnchored",
      "outputs": [
        {
          "internalType": "uint256",
          "name": "",
          "type": "uint256"
        }
      ],
      "stateMutability": "view",
      "type": "function"
    },
    {
      "inputs": [
        {
          "internalType": "uint256",
          "name": "batchId",
          "type": "uint256"
        },
        {
          "internalType": "bytes32",
          "name": "dataHash",
          "type": "bytes32"
        },
        {
          "internalType": "bytes32[]",
          "name": "proof",
          "type": "bytes32[]"
        },
        {
          "internalType": "uint256",
          "name": "index",
          "type": "uint256"
        }
      ],
      "name": "verifyData",
      "outputs": [
        {
          "internalType": "bool",
          "name": "",
          "type": "bool"
        }
      ],
      "stateMutability": "nonpayable",
      "type": "function"
    }
  ],
  "bytecode": "0x608060405234801561001057600080fd5b50610b3a806100206000396000f3fe608060405234801561001057600080fd5b50600436106100935760003560e01c80636c252aea116100665780636c252aea146100ef5780638202f7931461010f578063846b06bc14610132578063b32c4d8d14610152578063bb0319d41461017657600080fd5b80630a763da11461009857806327a38e17146100b45780632e6b5cfc146100c75780635ac44282146100cf575b600080fd5b6100a160025481565b6040519081526020015b60405180910390f35b6100a16100c23660046106c6565b61017f565b6003546100a1565b6100e26100dd36600461076e565b610332565b6040516100ab91906107cd565b6100a16100fd36600461076e565b60016020526000908152604090205481565b61012261011d366004610820565b610458565b60405190151581526020016100ab565b6100a161014036600461076e565b60009081526001602052604090205490565b61016561016036600461076e565b6105bc565b6040516100ab9594939291906108e1565b6100a160035481565b6000836101c95760405162461bcd60e51b8152602060048201526013602482015272125b9d985b1a590813595c9adb19481c9bdbdd606a1b60448201526064015b60405180910390fd5b600083116102195760405162461bcd60e51b815260206004820152601b60248201527f42617463682073697a65206d75737420626520706f736974697665000000000060448201526064016101c0565b6002805490600061022983610935565b90915550506040805160a0810182528581524260208083019182528284018781523360608501908152608085018881526002805460009081529485905296909320855181559351600185015590519483019490945592516003820180546001600160a01b0319166001600160a01b03909216919091179055915190919060048201906102b590826109d7565b5050600254600086815260016020526040812091909155600380548693509091906102e1908490610a97565b9091555050600254604080518581524260208201523392879290917fb106066228bb04f77b07d643f905b3631dbb729c654d70271731d35a0a3eb79c910160405180910390a4506002549392505050565b6103706040518060a0016040528060008019168152602001600081526020016000815260200160006001600160a01b03168152602001606081525090565b60008281526020818152604091829020825160a0810184528154815260018201549281019290925260028101549282019290925260038201546001600160a01b031660608201526004820180549192916080840191906103cf9061094e565b80601f01602080910402602001604051908101604052809291908181526020018280546103fb9061094e565b80156104485780601f1061041d57610100808354040283529160200191610448565b820191906000526020600020905b81548152906001019060200180831161042b57829003601f168201915b5050505050815250509050919050565b6000848152602081905260408120546104aa5760405162461bcd60e51b815260206004820152601460248201527310985d18da08191bd95cc81b9bdd08195e1a5cdd60621b60448201526064016101c0565b8360005b84518110156105685760008582815181106104cb576104cb610ab0565b602002602001015190506002856104e29190610adc565b60000361051a576040805160208101859052908101829052606001604051602081830303815290604052805190602001209250610547565b60408051602081018390529081018490526060016040516020818303038152906040528051906020012092505b610552600286610af0565b945050808061056090610935565b9150506104ae565b506000868152602081815260409182902054915191831480835291889188917f255aaf19bc0e3da779e24a14b9f9c66b46e6b510d62408a464927213acc9d8dc910160405180910390a39695505050505050565b600060208190529081526040902080546001820154600283015460038401546004850180549495939492936001600160a01b03909216926105fc9061094e565b80601f01602080910402602001604051908101604052809291908181526020018280546106289061094e565b80156106755780601f1061064a57610100808354040283529160200191610675565b820191906000526020600020905b81548152906001019060200180831161065857829003601f168201915b5050505050905085565b634e487b7160e01b600052604160045260246000fd5b604051601f8201601f1916810167ffffffffffffffff811182821017156106be576106be61067f565b604052919050565b6000806000606084860312156106db57600080fd5b833592506020808501359250604085013567ffffffffffffffff8082111561070257600080fd5b818701915087601f83011261071657600080fd5b8135818111156107285761072861067f565b61073a601f8201601f19168501610695565b9150808252888482850101111561075057600080fd5b80848401858401376000848284010152508093505050509250925092565b60006020828403121561078057600080fd5b5035919050565b6000815180845260005b818110156107ad57602081850181015186830182015201610791565b506000602082860101526020601f19601f83011685010191505092915050565b6020815281516020820152602082015160408201526040820151606082015260018060a01b0360608301511660808201526000608083015160a08084015261081860c0840182610787565b949350505050565b6000806000806080858703121561083657600080fd5b843593506020808601359350604086013567ffffffffffffffff8082111561085d57600080fd5b818801915088601f83011261087157600080fd5b8135818111156108835761088361067f565b8060051b9150610894848301610695565b818152918301840191848101908b8411156108ae57600080fd5b938501935b838510156108cc578435825293850193908501906108b3565b989b979a509798606001359750505050505050565b85815284602082015283604082015260018060a01b038316606082015260a06080820152600061091460a0830184610787565b979650505050505050565b634e487b7160e01b600052601160045260246000fd5b6000600182016109475761094761091f565b5060010190565b600181811c9082168061096257607f821691505b60208210810361098257634e487b7160e01b600052602260045260246000fd5b50919050565b601f8211156109d257600081815260208120601f850160051c810160208610156109af5750805b601f850160051c820191505b818110156109ce578281556001016109bb565b5050505b505050565b815167ffffffffffffffff8111156109f1576109f161067f565b610a05816109ff845461094e565b84610988565b602080601f831160018114610a3a5760008415610a225750858301515b600019600386901b1c1916600185901b1785556109ce565b600085815260208120601f198616915b82811015610a6957888601518255948401946001909101908401610a4a565b5085821015610a875787850151600019600388901b60f8161c191681555b5050505050600190811b01905550565b80820180821115610aaa57610aaa61091f565b92915050565b634e487b7160e01b600052603260045260246000fd5b634e487b7160e01b600052601260045260246000fd5b600082610aeb57610aeb610ac6565b500690565b600082610aff57610aff610ac6565b50049056fea2646970667358221220655f31c70d3650d71e40e1110f9d793169d4d160dfd063795a7479ceb3596a8164736f6c63430008140033",
  "linkReferences": {},
  "deployedLinkReferences": {}
}