{
  "_format": "hh-sol-artifact-1",
  "contractName": "DeviceRegistry",
  "sourceName": "contracts/DeviceRegistry.sol",
  "abi": [
    {
      "inputs": [
        {
          "internalType": "address",
          "name": "_zkpVerifier",
          "type": "address"
        }
      ],
      "stateMutability": "nonpayable",
      "type": "constructor"
    },
    {
      "anonymous": false,
      "inputs": [
        {
          "indexed": true,
          "internalType": "bytes32",
          "name": "deviceId",
          "type": "bytes32"
        },
        {
          "indexed": false,
          "internalType": "uint256",
          "name": "timestamp",
          "type": "uint256"
        }
      ],
      "name": "DeviceAuthenticated",
      "type": "event"
    },
    {
      "anonymous": false,
      "inputs": [
        {
          "indexed": true,
          "internalType": "bytes32",
          "name": "deviceId",
          "type": "bytes32"
        },
        {
          "indexed": false,
          "internalType": "uint256",
          "name": "timestamp",
          "type": "uint256"
        }
      ],
      "name": "DeviceDeactivated",
      "type": "event"
    },
    {
      "anonymous": false,
      "inputs": [
        {
          "indexed": true,
          "internalType": "bytes32",
          "name": "deviceId",
          "type": "bytes32"
        },
        {
          "indexed": true,
          "internalType": "address",
          "name": "owner",
          "type": "address"
        },
        {
          "indexed": false,
          "internalType": "string",
          "name": "deviceType",
          "type": "string"
        },
        {
          "indexed": false,
          "internalType": "uint256",
          "name": "timestamp",
          "type": "uint256"
        }
      ],
      "name": "DeviceRegistered",
      "type": "event"
    },
    {
      "inputs": [
        {
          "internalType": "bytes32",
          "name": "deviceId",
          "type": "bytes32"
        },
        {
          "components": [
            {
              "internalType": "uint256[2]",
              "name": "a",
              "type": "uint256[2]"
            },
            {
              "internalType": "uint256[2][2]",
              "name": "b",
              "type": "uint256[2][2]"
            },
            {
              "internalType": "uint256[2]",
              "name": "c",
              "type": "uint256[2]"
            }
          ],
          "internalType": "struct ZKPVerifier.Proof",
          "name": "proof",
          "type": "tuple"
        },
        {
          "internalType": "uint256[]",
          "name": "publicSignals",
          "type": "uint256[]"
        }
      ],
      "name": "authenticateDevice",
      "outputs": [
        {
          "internalType": "bool",
          "name": "",
          "type": "bool"
        }
      ],
      "stateMutability": "nonpayable",
      "type": "function"
    },
    {
      "inputs": [
        {
          "internalType": "bytes32",
          "name": "deviceId",
          "type": "bytes32"
        }
      ],
      "name": "deactivateDevice",
      "outputs": [],
      "stateMutability": "nonpayable",
      "type": "function"
    },
    {
      "inputs": [
        {
          "internalType": "bytes32",
          "name": "",
          "type": "bytes32"
        }
      ],
      "name": "devices",
      "outputs": [
        {
          "internalType": "bytes32",
          "name": "deviceId",
          "type": "bytes32"
        },
        {
          "internalType": "address",
          "name": "owner",
          "type": "address"
        },
        {
          "internalType": "bytes32",
          "name": "publicKeyHash",
          "type": "bytes32"
        },
        {
          "internalType": "uint256",
          "name": "registeredAt",
          "type": "uint256"
        },
        {
          "internalType": "uint256",
          "name": "lastAuthenticated",
          "type": "uint256"
        },
        {
          "internalType": "bool",
          "name": "isActive",
          "type": "bool"
        },
        {
          "internalType": "string",
          "name": "deviceType",
          "type": "string"
        }
      ],
      "stateMutability": "view",
      "type": "function"
    },
    {
      "inputs": [
        {
          "internalType": "bytes32",
          "name": "deviceId",
          "type": "bytes32"
        }
      ],
      "name": "getDevice",
      "outputs": [
        {
          "components": [
            {
              "internalType": "bytes32",
              "name": "deviceId",
              "type": "bytes32"
            },
            {
              "internalType": "address",
              "name": "owner",
              "type": "address"
            },
            {
              "internalType": "bytes32",
              "name": "publicKeyHash",
              "type": "bytes32"
            },
            {
              "internalType": "uint256",
              "name": "registeredAt",
              "type": "uint256"
            },
            {
              "internalType": "uint256",
              "name": "lastAuthenticated",
              "type": "uint256"
            },
            {
              "internalType": "bool",
              "name": "isActive",
              "type": "bool"
            },
            {
              "internalType": "string",
              "name": "deviceType",
              "type": "string"
            }
          ],
          "internalType": "struct DeviceRegistry.Device",
          "name": "",
          "type": "tuple"
        }
      ],
      "stateMutability": "view",
      "type": "function"
    },
    {
      "inputs": [
        {
          "internalType": "address",
          "name": "owner",
          "type": "address"
        }
      ],
      "name": "getOwnerDevices",
      "outputs": [
        {
          "internalType": "bytes32[]",
          "name": "",
          "type": "bytes32[]"
        }
      ],
      "stateMutability": "view",
      "type": "function"
    },
    {
      "inputs": [
        {
          "internalType": "address",
          "name": "",
          "type": "address"
        },
        {
          "internalType": "uint256",
          "name": "",
          "type": "uint256"
        }
      ],
      "name": "ownerDevices",
      "outputs": [
        {
          "internalType": "bytes32",
          "name": "",
          "type": "bytes32"
        }
      ],
      "stateMutability": "view",
      "type": "function"
    },
    {
      "inputs": [
        {
          "internalType": "bytes32",
          "name": "deviceId",
          "type": "bytes32"
        },
        {
          "internalType": "bytes32",
          "name": "publicKeyHash",
          "type": "bytes32"
        },
        {
          "internalType": "string",
          "name": "deviceType",
          "type": "string"
        },
        {
          "components": [
            {
              "internalType": "uint256[2]",
              "name": "a",
              "type": "uint256[2]"
            },
            {
              "internalType": "uint256[2][2]",
              "name": "b",
              "type": "uint256[2][2]"
            },
            {
              "internalType": "uint256[2]",
              "name": "c",
              "type": "uint256[2]"
            }
          ],
          "internalType": "struct ZKPVerifier.Proof",
          "name": "proof",
          "type": "tuple"
        },
        {
          "internalType": "uint256[]",
          "name": "publicSignals",
          "type": "uint256[]"
        }
      ],
      "name": "registerDevice",
      "outputs": [],
      "stateMutability": "nonpayable",
      "type": "function"
    },
    {
      "inputs": [],
      "name": "totalDevices",
      "outputs": [
        {
          "internalType": "uint256",
          "name": "",
          "type": "uint256"
        }
      ],
      "stateMutability": "view",
      "type": "function"
    },
    {
      "inputs": [],
      "name": "zkpVerifier",
      "outputs": [
        {
          "internalType": "contract ZKPVerifier",
          "name": "",
          "type": "address"
        }
      ],
      "stateMutability": "view",
      "type": "function"
    }
  ],
  "bytecode": "0x608060405234801561001057600080fd5b506040516111b33803806111b383398101604081905261002f91610054565b600080546001600160a01b0319166001600160a01b0392909216919091179055610084565b60006020828403121561006657600080fd5b81516001600160a01b038116811461007d57600080fd5b9392505050565b611120806100936000396000f3fe608060405234801561001057600080fd5b50600436106100935760003560e01c806375c0b1dd1161006657806375c0b1dd14610114578063b90fb13814610127578063bfb4493f1461014a578063c5c400de1461016a578063e46b47861461019057600080fd5b80630766e845146100985780636121898e146100ad5780636a7f745e146100c95780636aebbd66146100e9575b600080fd5b6100ab6100a6366004610976565b6101a3565b005b6100b660035481565b6040519081526020015b60405180910390f35b6100dc6100d7366004610976565b6102be565b6040516100c091906109d5565b6000546100fc906001600160a01b031681565b6040516001600160a01b0390911681526020016100c0565b6100ab610122366004610c3a565b6103fb565b61013a610135366004610d1a565b610637565b60405190151581526020016100c0565b61015d610158366004610d90565b610803565b6040516100c09190610db2565b61017d610178366004610976565b61086f565b6040516100c09796959493929190610df6565b6100b661019e366004610e44565b610945565b600081815260016020819052604090912001546001600160a01b031633146102055760405162461bcd60e51b815260206004820152601060248201526f2737ba103232bb34b1b29037bbb732b960811b60448201526064015b60405180910390fd5b60008181526001602052604090206005015460ff166102665760405162461bcd60e51b815260206004820152601a60248201527f44657669636520616c726561647920646561637469766174656400000000000060448201526064016101fc565b60008181526001602052604090819020600501805460ff191690555181907f90eb5eea50b0730c8ab4282498308951eaebda25096ddf8037d2e1d1ee642228906102b39042815260200190565b60405180910390a250565b6040805160e08101825260008082526020820181905291810182905260608082018390526080820183905260a082019290925260c0810191909152600082815260016020818152604092839020835160e08101855281548152928101546001600160a01b0316918301919091526002810154928201929092526003820154606082015260048201546080820152600582015460ff16151560a082015260068201805491929160c08401919061037290610e6e565b80601f016020809104026020016040519081016040528092919081815260200182805461039e90610e6e565b80156103eb5780601f106103c0576101008083540402835291602001916103eb565b820191906000526020600020905b8154815290600101906020018083116103ce57829003601f168201915b5050505050815250509050919050565b600085815260016020526040902054156104575760405162461bcd60e51b815260206004820152601960248201527f44657669636520616c726561647920726567697374657265640000000000000060448201526064016101fc565b600054604051632f534e5760e11b81526001600160a01b0390911690635ea69cae906104899085908590600401610ed1565b6020604051808303816000875af11580156104a8573d6000803e3d6000fd5b505050506040513d601f19601f820116820180604052508101906104cc9190610f70565b6105065760405162461bcd60e51b815260206004820152600b60248201526a0496e76616c6964205a4b560ac1b60448201526064016101fc565b6040805160e081018252868152336020808301918252828401888152426060850181815260808601918252600160a0870181815260c088018c815260008f8152968390529890952087518155955190860180546001600160a01b0319166001600160a01b0390921691909117905591516002850155905160038401555160048301555160058201805460ff191691151591909117905591519091829160068201906105b19082610fe1565b50503360009081526002602090815260408220805460018101825590835290822001889055600380549250906105e6836110a1565b9190505550336001600160a01b0316867f3c127575a1a414a6c6a0e28ae10d8401f8b5322057b2dc4295d1e8fcf4d1074b86426040516106279291906110c8565b60405180910390a3505050505050565b60008381526001602052604081205461068a5760405162461bcd60e51b815260206004820152601560248201527411195d9a58d9481b9bdd081c9959da5cdd195c9959605a1b60448201526064016101fc565b60008481526001602052604090206005015460ff166106e35760405162461bcd60e51b815260206004820152601560248201527411195d9a58d9481a5cc819195858dd1a5d985d1959605a1b60448201526064016101fc565b600054604051632f534e5760e11b81526001600160a01b0390911690635ea69cae906107159086908690600401610ed1565b6020604051808303816000875af1158015610734573d6000803e3d6000fd5b505050506040513d601f19601f820116820180604052508101906107589190610f70565b6107a45760405162461bcd60e51b815260206004820152601c60248201527f496e76616c69642061757468656e7469636174696f6e2070726f6f660000000060448201526064016101fc565b426001600086815260200190815260200160002060040181905550837f3b9f052f510e1ab37a9685100de0a859ebb333e375461799b2becf25ccdf0020426040516107f191815260200190565b60405180910390a25060019392505050565b6001600160a01b03811660009081526002602090815260409182902080548351818402810184019094528084526060939283018282801561086357602002820191906000526020600020905b81548152602001906001019080831161084f575b50505050509050919050565b600160208190526000918252604090912080549181015460028201546003830154600484015460058501546006860180546001600160a01b039096169694959394929360ff90921692916108c290610e6e565b80601f01602080910402602001604051908101604052809291908181526020018280546108ee90610e6e565b801561093b5780601f106109105761010080835404028352916020019161093b565b820191906000526020600020905b81548152906001019060200180831161091e57829003601f168201915b5050505050905087565b6002602052816000526040600020818154811061096157600080fd5b90600052602060002001600091509150505481565b60006020828403121561098857600080fd5b5035919050565b6000815180845260005b818110156109b557602081850181015186830182015201610999565b506000602082860101526020601f19601f83011685010191505092915050565b602081528151602082015260018060a01b0360208301511660408201526040820151606082015260608201516080820152608082015160a082015260a0820151151560c0820152600060c083015160e080840152610a3761010084018261098f565b949350505050565b634e487b7160e01b600052604160045260246000fd5b6040516060810167ffffffffffffffff81118282101715610a7857610a78610a3f565b60405290565b6040805190810167ffffffffffffffff81118282101715610a7857610a78610a3f565b604051601f8201601f1916810167ffffffffffffffff81118282101715610aca57610aca610a3f565b604052919050565b600082601f830112610ae357600080fd5b610aeb610a7e565b806040840185811115610afd57600080fd5b845b81811015610b17578035845260209384019301610aff565b509095945050505050565b60006101008284031215610b3557600080fd5b610b3d610a55565b9050610b498383610ad2565b8152604083605f840112610b5c57600080fd5b610b64610a7e565b8060c0850186811115610b7657600080fd5b8386015b81811015610b9b57610b8c8882610ad2565b84526020909301928401610b7a565b50816020860152610bac8782610ad2565b848601525050505092915050565b600082601f830112610bcb57600080fd5b8135602067ffffffffffffffff821115610be757610be7610a3f565b8160051b610bf6828201610aa1565b9283528481018201928281019087851115610c1057600080fd5b83870192505b84831015610c2f57823582529183019190830190610c16565b979650505050505050565b60008060008060006101808688031215610c5357600080fd5b853594506020808701359450604087013567ffffffffffffffff80821115610c7a57600080fd5b818901915089601f830112610c8e57600080fd5b813581811115610ca057610ca0610a3f565b610cb2601f8201601f19168501610aa1565b8181528b85838601011115610cc657600080fd5b818585018683013760008583830101528097505050610ce88a60608b01610b22565b9450610160890135925080831115610cff57600080fd5b5050610d0d88828901610bba565b9150509295509295909350565b60008060006101408486031215610d3057600080fd5b83359250610d418560208601610b22565b915061012084013567ffffffffffffffff811115610d5e57600080fd5b610d6a86828701610bba565b9150509250925092565b80356001600160a01b0381168114610d8b57600080fd5b919050565b600060208284031215610da257600080fd5b610dab82610d74565b9392505050565b6020808252825182820181905260009190848201906040850190845b81811015610dea57835183529284019291840191600101610dce565b50909695505050505050565b87815260018060a01b038716602082015285604082015284606082015283608082015282151560a082015260e060c08201526000610e3760e083018461098f565b9998505050505050505050565b60008060408385031215610e5757600080fd5b610e6083610d74565b946020939093013593505050565b600181811c90821680610e8257607f821691505b602082108103610ea257634e487b7160e01b600052602260045260246000fd5b50919050565b8060005b6002811015610ecb578151845260209384019390910190600101610eac565b50505050565b6000610120808301610ee4848751610ea8565b602080870151604080870160005b6002811015610f1657610f06828551610ea8565b9284019290820190600101610ef2565b50508801519050610f2a60c0870182610ea8565b506101008501929092528451908190526101408401918086019160005b81811015610f6357835185529382019392820192600101610f47565b5092979650505050505050565b600060208284031215610f8257600080fd5b81518015158114610dab57600080fd5b601f821115610fdc57600081815260208120601f850160051c81016020861015610fb95750805b601f850160051c820191505b81811015610fd857828155600101610fc5565b5050505b505050565b815167ffffffffffffffff811115610ffb57610ffb610a3f565b61100f816110098454610e6e565b84610f92565b602080601f831160018114611044576000841561102c5750858301515b600019600386901b1c1916600185901b178555610fd8565b600085815260208120601f198616915b8281101561107357888601518255948401946001909101908401611054565b50858210156110915787850151600019600388901b60f8161c191681555b5050505050600190811b01905550565b6000600182016110c157634e487b7160e01b600052601160045260246000fd5b5060010190565b6040815260006110db604083018561098f565b9050826020830152939250505056fea2646970667358221220716b594c35c068f8abeb9c93db9d822a73e06a13328046262d20eea73618831c64736f6c63430008140033",
  "linkReferences": {},
  "deployedLinkReferences": {}
}