{"contracts/DeviceRegistry.sol":{"DeviceRegistry":{"abi":[{"inputs":[{"internalType":"address","name":"_zkpVerifier","type":"address"}],"stateMutability":"nonpayable","type":"constructor"},{"anonymous":false,"inputs":[{"indexed":true,"internalType":"bytes32","name":"deviceId","type":"bytes32"},{"indexed":false,"internalType":"uint256","name":"timestamp","type":"uint256"}],"name":"DeviceAuthenticated","type":"event"},{"anonymous":false,"inputs":[{"indexed":true,"internalType":"bytes32","name":"deviceId","type":"bytes32"},{"indexed":false,"internalType":"uint256","name":"timestamp","type":"uint256"}],"name":"DeviceDeactivated","type":"event"},{"anonymous":false,"inputs":[{"indexed":true,"internalType":"bytes32","name":"deviceId","type":"bytes32"},{"indexed":true,"internalType":"address","name":"owner","type":"address"},{"indexed":false,"internalType":"string","name":"deviceType","type":"string"},{"indexed":false,"internalType":"uint256","name":"timestamp","type":"uint256"}],"name":"DeviceRegistered","type":"event"},{"inputs":[{"internalType":"bytes32","name":"deviceId","type":"bytes32"},{"components":[{"internalType":"uint256[2]","name":"a","type":"uint256[2]"},{"internalType":"uint256[2][2]","name":"b","type":"uint256[2][2]"},{"internalType":"uint256[2]","name":"c","type":"uint256[2]"}],"internalType":"struct ZKPVerifier.Proof","name":"proof","type":"tuple"},{"internalType":"uint256[]","name":"publicSignals","type":"uint256[]"}],"name":"authenticateDevice","outputs":[{"internalType":"bool","name":"","type":"bool"}],"stateMutability":"nonpayable","type":"function"},{"inputs":[{"internalType":"bytes32","name":"deviceId","type":"bytes32"}],"name":"deactivateDevice","outputs":[],"stateMutability":"nonpayable","type":"function"},{"inputs":[{"internalType":"bytes32","name":"","type":"bytes32"}],"name":"devices","outputs":[{"internalType":"bytes32","name":"deviceId","type":"bytes32"},{"internalType":"address","name":"owner","type":"address"},{"internalType":"bytes32","name":"publicKeyHash","type":"bytes32"},{"internalType":"uint256","name":"registeredAt","type":"uint256"},{"internalType":"uint256","name":"lastAuthenticated","type":"uint256"},{"internalType":"bool","name":"isActive","type":"bool"},{"internalType":"string","name":"deviceType","type":"string"}],"stateMutability":"view","type":"function"},{"inputs":[{"internalType":"bytes32","name":"deviceId","type":"bytes32"}],"name":"getDevice","outputs":[{"components":[{"internalType":"bytes32","name":"deviceId","type":"bytes32"},{"internalType":"address","name":"owner","type":"address"},{"internalType":"bytes32","name":"publicKeyHash","type":"bytes32"},{"internalType":"uint256","name":"registeredAt","type":"uint256"},{"internalType":"uint256","name":"lastAuthenticated","type":"uint256"},{"internalType":"bool","name":"isActive","type":"bool"},{"internalType":"string","name":"deviceType","type":"string"}],"internalType":"struct DeviceRegistry.Device","name":"","type":"tuple"}],"stateMutability":"view","type":"function"},{"inputs":[{"internalType":"address","name":"owner","type":"address"}],"name":"getOwnerDevices","outputs":[{"internalType":"bytes32[]","name":"","type":"bytes32[]"}],"stateMutability":"view","type":"function"},{"inputs":[{"internalType":"address","name":"","type":"address"},{"internalType":"uint256","name":"","type":"uint256"}],"name":"ownerDevices","outputs":[{"internalType":"bytes32","name":"","type":"bytes32"}],"stateMutability":"view","type":"function"},{"inputs":[{"internalType":"bytes32","name":"deviceId","type":"bytes32"},{"internalType":"bytes32","name":"publicKeyHash","type":"bytes32"},{"internalType":"string","name":"deviceType","type":"string"},{"components":[{"internalType":"uint256[2]","name":"a","type":"uint256[2]"},{"internalType":"uint256[2][2]","name":"b","type":"uint256[2][2]"},{"internalType":"uint256[2]","name":"c","type":"uint256[2]"}],"internalType":"struct ZKPVerifier.Proof","name":"proof","type":"tuple"},{"internalType":"uint256[]","name":"publicSignals","type":"uint256[]"}],"name":"registerDevice","outputs":[],"stateMutability":"nonpayable","type":"function"},{"inputs":[],"name":"totalDevices","outputs":[{"internalType":"uint256","name":"","type":"uint256"}],"stateMutability":"view","type":"function"},{"inputs":[],"name":"zkpVerifier","outputs":[{"internalType":"contract ZKPVerifier","name":"","type":"address"}],"stateMutability":"view","type":"function"}],"evm":{"bytecode":{"linkReferences":{},"object":"608060405234801561001057600080fd5b506040516111b33803806111b383398101604081905261002f91610054565b600080546001600160a01b0319166001600160a01b0392909216919091179055610084565b60006020828403121561006657600080fd5b81516001600160a01b038116811461007d57600080fd5b9392505050565b611120806100936000396000f3fe608060405234801561001057600080fd5b50600436106100935760003560e01c806375c0b1dd1161006657806375c0b1dd14610114578063b90fb13814610127578063bfb4493f1461014a578063c5c400de1461016a578063e46b47861461019057600080fd5b80630766e845146100985780636121898e146100ad5780636a7f745e146100c95780636aebbd66146100e9575b600080fd5b6100ab6100a6366004610976565b6101a3565b005b6100b660035481565b6040519081526020015b60405180910390f35b6100dc6100d7366004610976565b6102be565b6040516100c091906109d5565b6000546100fc906001600160a01b031681565b6040516001600160a01b0390911681526020016100c0565b6100ab610122366004610c3a565b6103fb565b61013a610135366004610d1a565b610637565b60405190151581526020016100c0565b61015d610158366004610d90565b610803565b6040516100c09190610db2565b61017d610178366004610976565b61086f565b6040516100c09796959493929190610df6565b6100b661019e366004610e44565b610945565b600081815260016020819052604090912001546001600160a01b031633146102055760405162461bcd60e51b815260206004820152601060248201526f2737ba103232bb34b1b29037bbb732b960811b60448201526064015b60405180910390fd5b60008181526001602052604090206005015460ff166102665760405162461bcd60e51b815260206004820152601a60248201527f44657669636520616c726561647920646561637469766174656400000000000060448201526064016101fc565b60008181526001602052604090819020600501805460ff191690555181907f90eb5eea50b0730c8ab4282498308951eaebda25096ddf8037d2e1d1ee642228906102b39042815260200190565b60405180910390a250565b6040805160e08101825260008082526020820181905291810182905260608082018390526080820183905260a082019290925260c0810191909152600082815260016020818152604092839020835160e08101855281548152928101546001600160a01b0316918301919091526002810154928201929092526003820154606082015260048201546080820152600582015460ff16151560a082015260068201805491929160c08401919061037290610e6e565b80601f016020809104026020016040519081016040528092919081815260200182805461039e90610e6e565b80156103eb5780601f106103c0576101008083540402835291602001916103eb565b820191906000526020600020905b8154815290600101906020018083116103ce57829003601f168201915b5050505050815250509050919050565b600085815260016020526040902054156104575760405162461bcd60e51b815260206004820152601960248201527f44657669636520616c726561647920726567697374657265640000000000000060448201526064016101fc565b600054604051632f534e5760e11b81526001600160a01b0390911690635ea69cae906104899085908590600401610ed1565b6020604051808303816000875af11580156104a8573d6000803e3d6000fd5b505050506040513d601f19601f820116820180604052508101906104cc9190610f70565b6105065760405162461bcd60e51b815260206004820152600b60248201526a0496e76616c6964205a4b560ac1b60448201526064016101fc565b6040805160e081018252868152336020808301918252828401888152426060850181815260808601918252600160a0870181815260c088018c815260008f8152968390529890952087518155955190860180546001600160a01b0319166001600160a01b0390921691909117905591516002850155905160038401555160048301555160058201805460ff191691151591909117905591519091829160068201906105b19082610fe1565b50503360009081526002602090815260408220805460018101825590835290822001889055600380549250906105e6836110a1565b9190505550336001600160a01b0316867f3c127575a1a414a6c6a0e28ae10d8401f8b5322057b2dc4295d1e8fcf4d1074b86426040516106279291906110c8565b60405180910390a3505050505050565b60008381526001602052604081205461068a5760405162461bcd60e51b815260206004820152601560248201527411195d9a58d9481b9bdd081c9959da5cdd195c9959605a1b60448201526064016101fc565b60008481526001602052604090206005015460ff166106e35760405162461bcd60e51b815260206004820152601560248201527411195d9a58d9481a5cc819195858dd1a5d985d1959605a1b60448201526064016101fc565b600054604051632f534e5760e11b81526001600160a01b0390911690635ea69cae906107159086908690600401610ed1565b6020604051808303816000875af1158015610734573d6000803e3d6000fd5b505050506040513d601f19601f820116820180604052508101906107589190610f70565b6107a45760405162461bcd60e51b815260206004820152601c60248201527f496e76616c69642061757468656e7469636174696f6e2070726f6f660000000060448201526064016101fc565b426001600086815260200190815260200160002060040181905550837f3b9f052f510e1ab37a9685100de0a859ebb333e375461799b2becf25ccdf0020426040516107f191815260200190565b60405180910390a25060019392505050565b6001600160a01b03811660009081526002602090815260409182902080548351818402810184019094528084526060939283018282801561086357602002820191906000526020600020905b81548152602001906001019080831161084f575b50505050509050919050565b600160208190526000918252604090912080549181015460028201546003830154600484015460058501546006860180546001600160a01b039096169694959394929360ff90921692916108c290610e6e565b80601f01602080910402602001604051908101604052809291908181526020018280546108ee90610e6e565b801561093b5780601f106109105761010080835404028352916020019161093b565b820191906000526020600020905b81548152906001019060200180831161091e57829003601f168201915b5050505050905087565b6002602052816000526040600020818154811061096157600080fd5b90600052602060002001600091509150505481565b60006020828403121561098857600080fd5b5035919050565b6000815180845260005b818110156109b557602081850181015186830182015201610999565b506000602082860101526020601f19601f83011685010191505092915050565b602081528151602082015260018060a01b0360208301511660408201526040820151606082015260608201516080820152608082015160a082015260a0820151151560c0820152600060c083015160e080840152610a3761010084018261098f565b949350505050565b634e487b7160e01b600052604160045260246000fd5b6040516060810167ffffffffffffffff81118282101715610a7857610a78610a3f565b60405290565b6040805190810167ffffffffffffffff81118282101715610a7857610a78610a3f565b604051601f8201601f1916810167ffffffffffffffff81118282101715610aca57610aca610a3f565b604052919050565b600082601f830112610ae357600080fd5b610aeb610a7e565b806040840185811115610afd57600080fd5b845b81811015610b17578035845260209384019301610aff565b509095945050505050565b60006101008284031215610b3557600080fd5b610b3d610a55565b9050610b498383610ad2565b8152604083605f840112610b5c57600080fd5b610b64610a7e565b8060c0850186811115610b7657600080fd5b8386015b81811015610b9b57610b8c8882610ad2565b84526020909301928401610b7a565b50816020860152610bac8782610ad2565b848601525050505092915050565b600082601f830112610bcb57600080fd5b8135602067ffffffffffffffff821115610be757610be7610a3f565b8160051b610bf6828201610aa1565b9283528481018201928281019087851115610c1057600080fd5b83870192505b84831015610c2f57823582529183019190830190610c16565b979650505050505050565b60008060008060006101808688031215610c5357600080fd5b853594506020808701359450604087013567ffffffffffffffff80821115610c7a57600080fd5b818901915089601f830112610c8e57600080fd5b813581811115610ca057610ca0610a3f565b610cb2601f8201601f19168501610aa1565b8181528b85838601011115610cc657600080fd5b818585018683013760008583830101528097505050610ce88a60608b01610b22565b9450610160890135925080831115610cff57600080fd5b5050610d0d88828901610bba565b9150509295509295909350565b60008060006101408486031215610d3057600080fd5b83359250610d418560208601610b22565b915061012084013567ffffffffffffffff811115610d5e57600080fd5b610d6a86828701610bba565b9150509250925092565b80356001600160a01b0381168114610d8b57600080fd5b919050565b600060208284031215610da257600080fd5b610dab82610d74565b9392505050565b6020808252825182820181905260009190848201906040850190845b81811015610dea57835183529284019291840191600101610dce565b50909695505050505050565b87815260018060a01b038716602082015285604082015284606082015283608082015282151560a082015260e060c08201526000610e3760e083018461098f565b9998505050505050505050565b60008060408385031215610e5757600080fd5b610e6083610d74565b946020939093013593505050565b600181811c90821680610e8257607f821691505b602082108103610ea257634e487b7160e01b600052602260045260246000fd5b50919050565b8060005b6002811015610ecb578151845260209384019390910190600101610eac565b50505050565b6000610120808301610ee4848751610ea8565b602080870151604080870160005b6002811015610f1657610f06828551610ea8565b9284019290820190600101610ef2565b50508801519050610f2a60c0870182610ea8565b506101008501929092528451908190526101408401918086019160005b81811015610f6357835185529382019392820192600101610f47565b5092979650505050505050565b600060208284031215610f8257600080fd5b81518015158114610dab57600080fd5b601f821115610fdc57600081815260208120601f850160051c81016020861015610fb95750805b601f850160051c820191505b81811015610fd857828155600101610fc5565b5050505b505050565b815167ffffffffffffffff811115610ffb57610ffb610a3f565b61100f816110098454610e6e565b84610f92565b602080601f831160018114611044576000841561102c5750858301515b600019600386901b1c1916600185901b178555610fd8565b600085815260208120601f198616915b8281101561107357888601518255948401946001909101908401611054565b50858210156110915787850151600019600388901b60f8161c191681555b5050505050600190811b01905550565b6000600182016110c157634e487b7160e01b600052601160045260246000fd5b5060010190565b6040815260006110db604083018561098f565b9050826020830152939250505056fea2646970667358221220d2ca4693afc0f34fd3d33edc5b2431291b88e9217f79f61a113d212d97dc966564736f6c63430008140033","opcodes":"PUSH1 0x80 PUSH1 0x40 MSTORE CALLVALUE DUP1 ISZERO PUSH2 0x10 JUMPI PUSH1 0x0 DUP1 REVERT JUMPDEST POP PUSH1 0x40 MLOAD PUSH2 0x11B3 CODESIZE SUB DUP1 PUSH2 0x11B3 DUP4 CODECOPY DUP2 ADD PUSH1 0x40 DUP2 SWAP1 MSTORE PUSH2 0x2F SWAP2 PUSH2 0x54 JUMP JUMPDEST PUSH1 0x0 DUP1 SLOAD PUSH1 0x1 PUSH1 0x1 PUSH1 0xA0 SHL SUB NOT AND PUSH1 0x1 PUSH1 0x1 PUSH1 0xA0 SHL SUB SWAP3 SWAP1 SWAP3 AND SWAP2 SWAP1 SWAP2 OR SWAP1 SSTORE PUSH2 0x84 JUMP JUMPDEST PUSH1 0x0 PUSH1 0x20 DUP3 DUP5 SUB SLT ISZERO PUSH2 0x66 JUMPI PUSH1 0x0 DUP1 REVERT JUMPDEST DUP2 MLOAD PUSH1 0x1 PUSH1 0x1 PUSH1 0xA0 SHL SUB DUP2 AND DUP2 EQ PUSH2 0x7D JUMPI PUSH1 0x0 DUP1 REVERT JUMPDEST SWAP4 SWAP3 POP POP POP JUMP JUMPDEST PUSH2 0x1120 DUP1 PUSH2 0x93 PUSH1 0x0 CODECOPY PUSH1 0x0 RETURN INVALID PUSH1 0x80 PUSH1 0x40 MSTORE CALLVALUE DUP1 ISZERO PUSH2 0x10 JUMPI PUSH1 0x0 DUP1 REVERT JUMPDEST POP PUSH1 0x4 CALLDATASIZE LT PUSH2 0x93 JUMPI PUSH1 0x0 CALLDATALOAD PUSH1 0xE0 SHR DUP1 PUSH4 0x75C0B1DD GT PUSH2 0x66 JUMPI DUP1 PUSH4 0x75C0B1DD EQ PUSH2 0x114 JUMPI DUP1 PUSH4 0xB90FB138 EQ PUSH2 0x127 JUMPI DUP1 PUSH4 0xBFB4493F EQ PUSH2 0x14A JUMPI DUP1 PUSH4 0xC5C400DE EQ PUSH2 0x16A JUMPI DUP1 PUSH4 0xE46B4786 EQ PUSH2 0x190 JUMPI PUSH1 0x0 DUP1 REVERT JUMPDEST DUP1 PUSH4 0x766E845 EQ PUSH2 0x98 JUMPI DUP1 PUSH4 0x6121898E EQ PUSH2 0xAD JUMPI DUP1 PUSH4 0x6A7F745E EQ PUSH2 0xC9 JUMPI DUP1 PUSH4 0x6AEBBD66 EQ PUSH2 0xE9 JUMPI JUMPDEST PUSH1 0x0 DUP1 REVERT JUMPDEST PUSH2 0xAB PUSH2 0xA6 CALLDATASIZE PUSH1 0x4 PUSH2 0x976 JUMP JUMPDEST PUSH2 0x1A3 JUMP JUMPDEST STOP JUMPDEST PUSH2 0xB6 PUSH1 0x3 SLOAD DUP2 JUMP JUMPDEST PUSH1 0x40 MLOAD SWAP1 DUP2 MSTORE PUSH1 0x20 ADD JUMPDEST PUSH1 0x40 MLOAD DUP1 SWAP2 SUB SWAP1 RETURN JUMPDEST PUSH2 0xDC PUSH2 0xD7 CALLDATASIZE PUSH1 0x4 PUSH2 0x976 JUMP JUMPDEST PUSH2 0x2BE JUMP JUMPDEST PUSH1 0x40 MLOAD PUSH2 0xC0 SWAP2 SWAP1 PUSH2 0x9D5 JUMP JUMPDEST PUSH1 0x0 SLOAD PUSH2 0xFC SWAP1 PUSH1 0x1 PUSH1 0x1 PUSH1 0xA0 SHL SUB AND DUP2 JUMP JUMPDEST PUSH1 0x40 MLOAD PUSH1 0x1 PUSH1 0x1 PUSH1 0xA0 SHL SUB SWAP1 SWAP2 AND DUP2 MSTORE PUSH1 0x20 ADD PUSH2 0xC0 JUMP JUMPDEST PUSH2 0xAB PUSH2 0x122 CALLDATASIZE PUSH1 0x4 PUSH2 0xC3A JUMP JUMPDEST PUSH2 0x3FB JUMP JUMPDEST PUSH2 0x13A PUSH2 0x135 CALLDATASIZE PUSH1 0x4 PUSH2 0xD1A JUMP JUMPDEST PUSH2 0x637 JUMP JUMPDEST PUSH1 0x40 MLOAD SWAP1 ISZERO ISZERO DUP2 MSTORE PUSH1 0x20 ADD PUSH2 0xC0 JUMP JUMPDEST PUSH2 0x15D PUSH2 0x158 CALLDATASIZE PUSH1 0x4 PUSH2 0xD90 JUMP JUMPDEST PUSH2 0x803 JUMP JUMPDEST PUSH1 0x40 MLOAD PUSH2 0xC0 SWAP2 SWAP1 PUSH2 0xDB2 JUMP JUMPDEST PUSH2 0x17D PUSH2 0x178 CALLDATASIZE PUSH1 0x4 PUSH2 0x976 JUMP JUMPDEST PUSH2 0x86F JUMP JUMPDEST PUSH1 0x40 MLOAD PUSH2 0xC0 SWAP8 SWAP7 SWAP6 SWAP5 SWAP4 SWAP3 SWAP2 SWAP1 PUSH2 0xDF6 JUMP JUMPDEST PUSH2 0xB6 PUSH2 0x19E CALLDATASIZE PUSH1 0x4 PUSH2 0xE44 JUMP JUMPDEST PUSH2 0x945 JUMP JUMPDEST PUSH1 0x0 DUP2 DUP2 MSTORE PUSH1 0x1 PUSH1 0x20 DUP2 SWAP1 MSTORE PUSH1 0x40 SWAP1 SWAP2 KECCAK256 ADD SLOAD PUSH1 0x1 PUSH1 0x1 PUSH1 0xA0 SHL SUB AND CALLER EQ PUSH2 0x205 JUMPI PUSH1 0x40 MLOAD PUSH3 0x461BCD PUSH1 0xE5 SHL DUP2 MSTORE PUSH1 0x20 PUSH1 0x4 DUP3 ADD MSTORE PUSH1 0x10 PUSH1 0x24 DUP3 ADD MSTORE PUSH16 0x2737BA103232BB34B1B29037BBB732B9 PUSH1 0x81 SHL PUSH1 0x44 DUP3 ADD MSTORE PUSH1 0x64 ADD JUMPDEST PUSH1 0x40 MLOAD DUP1 SWAP2 SUB SWAP1 REVERT JUMPDEST PUSH1 0x0 DUP2 DUP2 MSTORE PUSH1 0x1 PUSH1 0x20 MSTORE PUSH1 0x40 SWAP1 KECCAK256 PUSH1 0x5 ADD SLOAD PUSH1 0xFF AND PUSH2 0x266 JUMPI PUSH1 0x40 MLOAD PUSH3 0x461BCD PUSH1 0xE5 SHL DUP2 MSTORE PUSH1 0x20 PUSH1 0x4 DUP3 ADD MSTORE PUSH1 0x1A PUSH1 0x24 DUP3 ADD MSTORE PUSH32 0x44657669636520616C7265616479206465616374697661746564000000000000 PUSH1 0x44 DUP3 ADD MSTORE PUSH1 0x64 ADD PUSH2 0x1FC JUMP JUMPDEST PUSH1 0x0 DUP2 DUP2 MSTORE PUSH1 0x1 PUSH1 0x20 MSTORE PUSH1 0x40 SWAP1 DUP2 SWAP1 KECCAK256 PUSH1 0x5 ADD DUP1 SLOAD PUSH1 0xFF NOT AND SWAP1 SSTORE MLOAD DUP2 SWAP1 PUSH32 0x90EB5EEA50B0730C8AB4282498308951EAEBDA25096DDF8037D2E1D1EE642228 SWAP1 PUSH2 0x2B3 SWAP1 TIMESTAMP DUP2 MSTORE PUSH1 0x20 ADD SWAP1 JUMP JUMPDEST PUSH1 0x40 MLOAD DUP1 SWAP2 SUB SWAP1 LOG2 POP JUMP JUMPDEST PUSH1 0x40 DUP1 MLOAD PUSH1 0xE0 DUP2 ADD DUP3 MSTORE PUSH1 0x0 DUP1 DUP3 MSTORE PUSH1 0x20 DUP3 ADD DUP2 SWAP1 MSTORE SWAP2 DUP2 ADD DUP3 SWAP1 MSTORE PUSH1 0x60 DUP1 DUP3 ADD DUP4 SWAP1 MSTORE PUSH1 0x80 DUP3 ADD DUP4 SWAP1 MSTORE PUSH1 0xA0 DUP3 ADD SWAP3 SWAP1 SWAP3 MSTORE PUSH1 0xC0 DUP2 ADD SWAP2 SWAP1 SWAP2 MSTORE PUSH1 0x0 DUP3 DUP2 MSTORE PUSH1 0x1 PUSH1 0x20 DUP2 DUP2 MSTORE PUSH1 0x40 SWAP3 DUP4 SWAP1 KECCAK256 DUP4 MLOAD PUSH1 0xE0 DUP2 ADD DUP6 MSTORE DUP2 SLOAD DUP2 MSTORE SWAP3 DUP2 ADD SLOAD PUSH1 0x1 PUSH1 0x1 PUSH1 0xA0 SHL SUB AND SWAP2 DUP4 ADD SWAP2 SWAP1 SWAP2 MSTORE PUSH1 0x2 DUP2 ADD SLOAD SWAP3 DUP3 ADD SWAP3 SWAP1 SWAP3 MSTORE PUSH1 0x3 DUP3 ADD SLOAD PUSH1 0x60 DUP3 ADD MSTORE PUSH1 0x4 DUP3 ADD SLOAD PUSH1 0x80 DUP3 ADD MSTORE PUSH1 0x5 DUP3 ADD SLOAD PUSH1 0xFF AND ISZERO ISZERO PUSH1 0xA0 DUP3 ADD MSTORE PUSH1 0x6 DUP3 ADD DUP1 SLOAD SWAP2 SWAP3 SWAP2 PUSH1 0xC0 DUP5 ADD SWAP2 SWAP1 PUSH2 0x372 SWAP1 PUSH2 0xE6E JUMP JUMPDEST DUP1 PUSH1 0x1F ADD PUSH1 0x20 DUP1 SWAP2 DIV MUL PUSH1 0x20 ADD PUSH1 0x40 MLOAD SWAP1 DUP2 ADD PUSH1 0x40 MSTORE DUP1 SWAP3 SWAP2 SWAP1 DUP2 DUP2 MSTORE PUSH1 0x20 ADD DUP3 DUP1 SLOAD PUSH2 0x39E SWAP1 PUSH2 0xE6E JUMP JUMPDEST DUP1 ISZERO PUSH2 0x3EB JUMPI DUP1 PUSH1 0x1F LT PUSH2 0x3C0 JUMPI PUSH2 0x100 DUP1 DUP4 SLOAD DIV MUL DUP4 MSTORE SWAP2 PUSH1 0x20 ADD SWAP2 PUSH2 0x3EB JUMP JUMPDEST DUP3 ADD SWAP2 SWAP1 PUSH1 0x0 MSTORE PUSH1 0x20 PUSH1 0x0 KECCAK256 SWAP1 JUMPDEST DUP2 SLOAD DUP2 MSTORE SWAP1 PUSH1 0x1 ADD SWAP1 PUSH1 0x20 ADD DUP1 DUP4 GT PUSH2 0x3CE JUMPI DUP3 SWAP1 SUB PUSH1 0x1F AND DUP3 ADD SWAP2 JUMPDEST POP POP POP POP POP DUP2 MSTORE POP POP SWAP1 POP SWAP2 SWAP1 POP JUMP JUMPDEST PUSH1 0x0 DUP6 DUP2 MSTORE PUSH1 0x1 PUSH1 0x20 MSTORE PUSH1 0x40 SWAP1 KECCAK256 SLOAD ISZERO PUSH2 0x457 JUMPI PUSH1 0x40 MLOAD PUSH3 0x461BCD PUSH1 0xE5 SHL DUP2 MSTORE PUSH1 0x20 PUSH1 0x4 DUP3 ADD MSTORE PUSH1 0x19 PUSH1 0x24 DUP3 ADD MSTORE PUSH32 0x44657669636520616C7265616479207265676973746572656400000000000000 PUSH1 0x44 DUP3 ADD MSTORE PUSH1 0x64 ADD PUSH2 0x1FC JUMP JUMPDEST PUSH1 0x0 SLOAD PUSH1 0x40 MLOAD PUSH4 0x2F534E57 PUSH1 0xE1 SHL DUP2 MSTORE PUSH1 0x1 PUSH1 0x1 PUSH1 0xA0 SHL SUB SWAP1 SWAP2 AND SWAP1 PUSH4 0x5EA69CAE SWAP1 PUSH2 0x489 SWAP1 DUP6 SWAP1 DUP6 SWAP1 PUSH1 0x4 ADD PUSH2 0xED1 JUMP JUMPDEST PUSH1 0x20 PUSH1 0x40 MLOAD DUP1 DUP4 SUB DUP2 PUSH1 0x0 DUP8 GAS CALL ISZERO DUP1 ISZERO PUSH2 0x4A8 JUMPI RETURNDATASIZE PUSH1 0x0 DUP1 RETURNDATACOPY RETURNDATASIZE PUSH1 0x0 REVERT JUMPDEST POP POP POP POP PUSH1 0x40 MLOAD RETURNDATASIZE PUSH1 0x1F NOT PUSH1 0x1F DUP3 ADD AND DUP3 ADD DUP1 PUSH1 0x40 MSTORE POP DUP2 ADD SWAP1 PUSH2 0x4CC SWAP2 SWAP1 PUSH2 0xF70 JUMP JUMPDEST PUSH2 0x506 JUMPI PUSH1 0x40 MLOAD PUSH3 0x461BCD PUSH1 0xE5 SHL DUP2 MSTORE PUSH1 0x20 PUSH1 0x4 DUP3 ADD MSTORE PUSH1 0xB PUSH1 0x24 DUP3 ADD MSTORE PUSH11 0x496E76616C6964205A4B5 PUSH1 0xAC SHL PUSH1 0x44 DUP3 ADD MSTORE PUSH1 0x64 ADD PUSH2 0x1FC JUMP JUMPDEST PUSH1 0x40 DUP1 MLOAD PUSH1 0xE0 DUP2 ADD DUP3 MSTORE DUP7 DUP2 MSTORE CALLER PUSH1 0x20 DUP1 DUP4 ADD SWAP2 DUP3 MSTORE DUP3 DUP5 ADD DUP9 DUP2 MSTORE TIMESTAMP PUSH1 0x60 DUP6 ADD DUP2 DUP2 MSTORE PUSH1 0x80 DUP7 ADD SWAP2 DUP3 MSTORE PUSH1 0x1 PUSH1 0xA0 DUP8 ADD DUP2 DUP2 MSTORE PUSH1 0xC0 DUP9 ADD DUP13 DUP2 MSTORE PUSH1 0x0 DUP16 DUP2 MSTORE SWAP7 DUP4 SWAP1 MSTORE SWAP9 SWAP1 SWAP6 KECCAK256 DUP8 MLOAD DUP2 SSTORE SWAP6 MLOAD SWAP1 DUP7 ADD DUP1 SLOAD PUSH1 0x1 PUSH1 0x1 PUSH1 0xA0 SHL SUB NOT AND PUSH1 0x1 PUSH1 0x1 PUSH1 0xA0 SHL SUB SWAP1 SWAP3 AND SWAP2 SWAP1 SWAP2 OR SWAP1 SSTORE SWAP2 MLOAD PUSH1 0x2 DUP6 ADD SSTORE SWAP1 MLOAD PUSH1 0x3 DUP5 ADD SSTORE MLOAD PUSH1 0x4 DUP4 ADD SSTORE MLOAD PUSH1 0x5 DUP3 ADD DUP1 SLOAD PUSH1 0xFF NOT AND SWAP2 ISZERO ISZERO SWAP2 SWAP1 SWAP2 OR SWAP1 SSTORE SWAP2 MLOAD SWAP1 SWAP2 DUP3 SWAP2 PUSH1 0x6 DUP3 ADD SWAP1 PUSH2 0x5B1 SWAP1 DUP3 PUSH2 0xFE1 JUMP JUMPDEST POP POP CALLER PUSH1 0x0 SWAP1 DUP2 MSTORE PUSH1 0x2 PUSH1 0x20 SWAP1 DUP2 MSTORE PUSH1 0x40 DUP3 KECCAK256 DUP1 SLOAD PUSH1 0x1 DUP2 ADD DUP3 SSTORE SWAP1 DUP4 MSTORE SWAP1 DUP3 KECCAK256 ADD DUP9 SWAP1 SSTORE PUSH1 0x3 DUP1 SLOAD SWAP3 POP SWAP1 PUSH2 0x5E6 DUP4 PUSH2 0x10A1 JUMP JUMPDEST SWAP2 SWAP1 POP SSTORE POP CALLER PUSH1 0x1 PUSH1 0x1 PUSH1 0xA0 SHL SUB AND DUP7 PUSH32 0x3C127575A1A414A6C6A0E28AE10D8401F8B5322057B2DC4295D1E8FCF4D1074B DUP7 TIMESTAMP PUSH1 0x40 MLOAD PUSH2 0x627 SWAP3 SWAP2 SWAP1 PUSH2 0x10C8 JUMP JUMPDEST PUSH1 0x40 MLOAD DUP1 SWAP2 SUB SWAP1 LOG3 POP POP POP POP POP POP JUMP JUMPDEST PUSH1 0x0 DUP4 DUP2 MSTORE PUSH1 0x1 PUSH1 0x20 MSTORE PUSH1 0x40 DUP2 KECCAK256 SLOAD PUSH2 0x68A JUMPI PUSH1 0x40 MLOAD PUSH3 0x461BCD PUSH1 0xE5 SHL DUP2 MSTORE PUSH1 0x20 PUSH1 0x4 DUP3 ADD MSTORE PUSH1 0x15 PUSH1 0x24 DUP3 ADD MSTORE PUSH21 0x11195D9A58D9481B9BDD081C9959DA5CDD195C9959 PUSH1 0x5A SHL PUSH1 0x44 DUP3 ADD MSTORE PUSH1 0x64 ADD PUSH2 0x1FC JUMP JUMPDEST PUSH1 0x0 DUP5 DUP2 MSTORE PUSH1 0x1 PUSH1 0x20 MSTORE PUSH1 0x40 SWAP1 KECCAK256 PUSH1 0x5 ADD SLOAD PUSH1 0xFF AND PUSH2 0x6E3 JUMPI PUSH1 0x40 MLOAD PUSH3 0x461BCD PUSH1 0xE5 SHL DUP2 MSTORE PUSH1 0x20 PUSH1 0x4 DUP3 ADD MSTORE PUSH1 0x15 PUSH1 0x24 DUP3 ADD MSTORE PUSH21 0x11195D9A58D9481A5CC819195858DD1A5D985D1959 PUSH1 0x5A SHL PUSH1 0x44 DUP3 ADD MSTORE PUSH1 0x64 ADD PUSH2 0x1FC JUMP JUMPDEST PUSH1 0x0 SLOAD PUSH1 0x40 MLOAD PUSH4 0x2F534E57 PUSH1 0xE1 SHL DUP2 MSTORE PUSH1 0x1 PUSH1 0x1 PUSH1 0xA0 SHL SUB SWAP1 SWAP2 AND SWAP1 PUSH4 0x5EA69CAE SWAP1 PUSH2 0x715 SWAP1 DUP7 SWAP1 DUP7 SWAP1 PUSH1 0x4 ADD PUSH2 0xED1 JUMP JUMPDEST PUSH1 0x20 PUSH1 0x40 MLOAD DUP1 DUP4 SUB DUP2 PUSH1 0x0 DUP8 GAS CALL ISZERO DUP1 ISZERO PUSH2 0x734 JUMPI RETURNDATASIZE PUSH1 0x0 DUP1 RETURNDATACOPY RETURNDATASIZE PUSH1 0x0 REVERT JUMPDEST POP POP POP POP PUSH1 0x40 MLOAD RETURNDATASIZE PUSH1 0x1F NOT PUSH1 0x1F DUP3 ADD AND DUP3 ADD DUP1 PUSH1 0x40 MSTORE POP DUP2 ADD SWAP1 PUSH2 0x758 SWAP2 SWAP1 PUSH2 0xF70 JUMP JUMPDEST PUSH2 0x7A4 JUMPI PUSH1 0x40 MLOAD PUSH3 0x461BCD PUSH1 0xE5 SHL DUP2 MSTORE PUSH1 0x20 PUSH1 0x4 DUP3 ADD MSTORE PUSH1 0x1C PUSH1 0x24 DUP3 ADD MSTORE PUSH32 0x496E76616C69642061757468656E7469636174696F6E2070726F6F6600000000 PUSH1 0x44 DUP3 ADD MSTORE PUSH1 0x64 ADD PUSH2 0x1FC JUMP JUMPDEST TIMESTAMP PUSH1 0x1 PUSH1 0x0 DUP7 DUP2 MSTORE PUSH1 0x20 ADD SWAP1 DUP2 MSTORE PUSH1 0x20 ADD PUSH1 0x0 KECCAK256 PUSH1 0x4 ADD DUP2 SWAP1 SSTORE POP DUP4 PUSH32 0x3B9F052F510E1AB37A9685100DE0A859EBB333E375461799B2BECF25CCDF0020 TIMESTAMP PUSH1 0x40 MLOAD PUSH2 0x7F1 SWAP2 DUP2 MSTORE PUSH1 0x20 ADD SWAP1 JUMP JUMPDEST PUSH1 0x40 MLOAD DUP1 SWAP2 SUB SWAP1 LOG2 POP PUSH1 0x1 SWAP4 SWAP3 POP POP POP JUMP JUMPDEST PUSH1 0x1 PUSH1 0x1 PUSH1 0xA0 SHL SUB DUP2 AND PUSH1 0x0 SWAP1 DUP2 MSTORE PUSH1 0x2 PUSH1 0x20 SWAP1 DUP2 MSTORE PUSH1 0x40 SWAP2 DUP3 SWAP1 KECCAK256 DUP1 SLOAD DUP4 MLOAD DUP2 DUP5 MUL DUP2 ADD DUP5 ADD SWAP1 SWAP5 MSTORE DUP1 DUP5 MSTORE PUSH1 0x60 SWAP4 SWAP3 DUP4 ADD DUP3 DUP3 DUP1 ISZERO PUSH2 0x863 JUMPI PUSH1 0x20 MUL DUP3 ADD SWAP2 SWAP1 PUSH1 0x0 MSTORE PUSH1 0x20 PUSH1 0x0 KECCAK256 SWAP1 JUMPDEST DUP2 SLOAD DUP2 MSTORE PUSH1 0x20 ADD SWAP1 PUSH1 0x1 ADD SWAP1 DUP1 DUP4 GT PUSH2 0x84F JUMPI JUMPDEST POP POP POP POP POP SWAP1 POP SWAP2 SWAP1 POP JUMP JUMPDEST PUSH1 0x1 PUSH1 0x20 DUP2 SWAP1 MSTORE PUSH1 0x0 SWAP2 DUP3 MSTORE PUSH1 0x40 SWAP1 SWAP2 KECCAK256 DUP1 SLOAD SWAP2 DUP2 ADD SLOAD PUSH1 0x2 DUP3 ADD SLOAD PUSH1 0x3 DUP4 ADD SLOAD PUSH1 0x4 DUP5 ADD SLOAD PUSH1 0x5 DUP6 ADD SLOAD PUSH1 0x6 DUP7 ADD DUP1 SLOAD PUSH1 0x1 PUSH1 0x1 PUSH1 0xA0 SHL SUB SWAP1 SWAP7 AND SWAP7 SWAP5 SWAP6 SWAP4 SWAP5 SWAP3 SWAP4 PUSH1 0xFF SWAP1 SWAP3 AND SWAP3 SWAP2 PUSH2 0x8C2 SWAP1 PUSH2 0xE6E JUMP JUMPDEST DUP1 PUSH1 0x1F ADD PUSH1 0x20 DUP1 SWAP2 DIV MUL PUSH1 0x20 ADD PUSH1 0x40 MLOAD SWAP1 DUP2 ADD PUSH1 0x40 MSTORE DUP1 SWAP3 SWAP2 SWAP1 DUP2 DUP2 MSTORE PUSH1 0x20 ADD DUP3 DUP1 SLOAD PUSH2 0x8EE SWAP1 PUSH2 0xE6E JUMP JUMPDEST DUP1 ISZERO PUSH2 0x93B JUMPI DUP1 PUSH1 0x1F LT PUSH2 0x910 JUMPI PUSH2 0x100 DUP1 DUP4 SLOAD DIV MUL DUP4 MSTORE SWAP2 PUSH1 0x20 ADD SWAP2 PUSH2 0x93B JUMP JUMPDEST DUP3 ADD SWAP2 SWAP1 PUSH1 0x0 MSTORE PUSH1 0x20 PUSH1 0x0 KECCAK256 SWAP1 JUMPDEST DUP2 SLOAD DUP2 MSTORE SWAP1 PUSH1 0x1 ADD SWAP1 PUSH1 0x20 ADD DUP1 DUP4 GT PUSH2 0x91E JUMPI DUP3 SWAP1 SUB PUSH1 0x1F AND DUP3 ADD SWAP2 JUMPDEST POP POP POP POP POP SWAP1 POP DUP8 JUMP JUMPDEST PUSH1 0x2 PUSH1 0x20 MSTORE DUP2 PUSH1 0x0 MSTORE PUSH1 0x40 PUSH1 0x0 KECCAK256 DUP2 DUP2 SLOAD DUP2 LT PUSH2 0x961 JUMPI PUSH1 0x0 DUP1 REVERT JUMPDEST SWAP1 PUSH1 0x0 MSTORE PUSH1 0x20 PUSH1 0x0 KECCAK256 ADD PUSH1 0x0 SWAP2 POP SWAP2 POP POP SLOAD DUP2 JUMP JUMPDEST PUSH1 0x0 PUSH1 0x20 DUP3 DUP5 SUB SLT ISZERO PUSH2 0x988 JUMPI PUSH1 0x0 DUP1 REVERT JUMPDEST POP CALLDATALOAD SWAP2 SWAP1 POP JUMP JUMPDEST PUSH1 0x0 DUP2 MLOAD DUP1 DUP5 MSTORE PUSH1 0x0 JUMPDEST DUP2 DUP2 LT ISZERO PUSH2 0x9B5 JUMPI PUSH1 0x20 DUP2 DUP6 ADD DUP2 ADD MLOAD DUP7 DUP4 ADD DUP3 ADD MSTORE ADD PUSH2 0x999 JUMP JUMPDEST POP PUSH1 0x0 PUSH1 0x20 DUP3 DUP7 ADD ADD MSTORE PUSH1 0x20 PUSH1 0x1F NOT PUSH1 0x1F DUP4 ADD AND DUP6 ADD ADD SWAP2 POP POP SWAP3 SWAP2 POP POP JUMP JUMPDEST PUSH1 0x20 DUP2 MSTORE DUP2 MLOAD PUSH1 0x20 DUP3 ADD MSTORE PUSH1 0x1 DUP1 PUSH1 0xA0 SHL SUB PUSH1 0x20 DUP4 ADD MLOAD AND PUSH1 0x40 DUP3 ADD MSTORE PUSH1 0x40 DUP3 ADD MLOAD PUSH1 0x60 DUP3 ADD MSTORE PUSH1 0x60 DUP3 ADD MLOAD PUSH1 0x80 DUP3 ADD MSTORE PUSH1 0x80 DUP3 ADD MLOAD PUSH1 0xA0 DUP3 ADD MSTORE PUSH1 0xA0 DUP3 ADD MLOAD ISZERO ISZERO PUSH1 0xC0 DUP3 ADD MSTORE PUSH1 0x0 PUSH1 0xC0 DUP4 ADD MLOAD PUSH1 0xE0 DUP1 DUP5 ADD MSTORE PUSH2 0xA37 PUSH2 0x100 DUP5 ADD DUP3 PUSH2 0x98F JUMP JUMPDEST SWAP5 SWAP4 POP POP POP POP JUMP JUMPDEST PUSH4 0x4E487B71 PUSH1 0xE0 SHL PUSH1 0x0 MSTORE PUSH1 0x41 PUSH1 0x4 MSTORE PUSH1 0x24 PUSH1 0x0 REVERT JUMPDEST PUSH1 0x40 MLOAD PUSH1 0x60 DUP2 ADD PUSH8 0xFFFFFFFFFFFFFFFF DUP2 GT DUP3 DUP3 LT OR ISZERO PUSH2 0xA78 JUMPI PUSH2 0xA78 PUSH2 0xA3F JUMP JUMPDEST PUSH1 0x40 MSTORE SWAP1 JUMP JUMPDEST PUSH1 0x40 DUP1 MLOAD SWAP1 DUP2 ADD PUSH8 0xFFFFFFFFFFFFFFFF DUP2 GT DUP3 DUP3 LT OR ISZERO PUSH2 0xA78 JUMPI PUSH2 0xA78 PUSH2 0xA3F JUMP JUMPDEST PUSH1 0x40 MLOAD PUSH1 0x1F DUP3 ADD PUSH1 0x1F NOT AND DUP2 ADD PUSH8 0xFFFFFFFFFFFFFFFF DUP2 GT DUP3 DUP3 LT OR ISZERO PUSH2 0xACA JUMPI PUSH2 0xACA PUSH2 0xA3F JUMP JUMPDEST PUSH1 0x40 MSTORE SWAP2 SWAP1 POP JUMP JUMPDEST PUSH1 0x0 DUP3 PUSH1 0x1F DUP4 ADD SLT PUSH2 0xAE3 JUMPI PUSH1 0x0 DUP1 REVERT JUMPDEST PUSH2 0xAEB PUSH2 0xA7E JUMP JUMPDEST DUP1 PUSH1 0x40 DUP5 ADD DUP6 DUP2 GT ISZERO PUSH2 0xAFD JUMPI PUSH1 0x0 DUP1 REVERT JUMPDEST DUP5 JUMPDEST DUP2 DUP2 LT ISZERO PUSH2 0xB17 JUMPI DUP1 CALLDATALOAD DUP5 MSTORE PUSH1 0x20 SWAP4 DUP5 ADD SWAP4 ADD PUSH2 0xAFF JUMP JUMPDEST POP SWAP1 SWAP6 SWAP5 POP POP POP POP POP JUMP JUMPDEST PUSH1 0x0 PUSH2 0x100 DUP3 DUP5 SUB SLT ISZERO PUSH2 0xB35 JUMPI PUSH1 0x0 DUP1 REVERT JUMPDEST PUSH2 0xB3D PUSH2 0xA55 JUMP JUMPDEST SWAP1 POP PUSH2 0xB49 DUP4 DUP4 PUSH2 0xAD2 JUMP JUMPDEST DUP2 MSTORE PUSH1 0x40 DUP4 PUSH1 0x5F DUP5 ADD SLT PUSH2 0xB5C JUMPI PUSH1 0x0 DUP1 REVERT JUMPDEST PUSH2 0xB64 PUSH2 0xA7E JUMP JUMPDEST DUP1 PUSH1 0xC0 DUP6 ADD DUP7 DUP2 GT ISZERO PUSH2 0xB76 JUMPI PUSH1 0x0 DUP1 REVERT JUMPDEST DUP4 DUP7 ADD JUMPDEST DUP2 DUP2 LT ISZERO PUSH2 0xB9B JUMPI PUSH2 0xB8C DUP9 DUP3 PUSH2 0xAD2 JUMP JUMPDEST DUP5 MSTORE PUSH1 0x20 SWAP1 SWAP4 ADD SWAP3 DUP5 ADD PUSH2 0xB7A JUMP JUMPDEST POP DUP2 PUSH1 0x20 DUP7 ADD MSTORE PUSH2 0xBAC DUP8 DUP3 PUSH2 0xAD2 JUMP JUMPDEST DUP5 DUP7 ADD MSTORE POP POP POP POP SWAP3 SWAP2 POP POP JUMP JUMPDEST PUSH1 0x0 DUP3 PUSH1 0x1F DUP4 ADD SLT PUSH2 0xBCB JUMPI PUSH1 0x0 DUP1 REVERT JUMPDEST DUP2 CALLDATALOAD PUSH1 0x20 PUSH8 0xFFFFFFFFFFFFFFFF DUP3 GT ISZERO PUSH2 0xBE7 JUMPI PUSH2 0xBE7 PUSH2 0xA3F JUMP JUMPDEST DUP2 PUSH1 0x5 SHL PUSH2 0xBF6 DUP3 DUP3 ADD PUSH2 0xAA1 JUMP JUMPDEST SWAP3 DUP4 MSTORE DUP5 DUP2 ADD DUP3 ADD SWAP3 DUP3 DUP2 ADD SWAP1 DUP8 DUP6 GT ISZERO PUSH2 0xC10 JUMPI PUSH1 0x0 DUP1 REVERT JUMPDEST DUP4 DUP8 ADD SWAP3 POP JUMPDEST DUP5 DUP4 LT ISZERO PUSH2 0xC2F JUMPI DUP3 CALLDATALOAD DUP3 MSTORE SWAP2 DUP4 ADD SWAP2 SWAP1 DUP4 ADD SWAP1 PUSH2 0xC16 JUMP JUMPDEST SWAP8 SWAP7 POP POP POP POP POP POP POP JUMP JUMPDEST PUSH1 0x0 DUP1 PUSH1 0x0 DUP1 PUSH1 0x0 PUSH2 0x180 DUP7 DUP9 SUB SLT ISZERO PUSH2 0xC53 JUMPI PUSH1 0x0 DUP1 REVERT JUMPDEST DUP6 CALLDATALOAD SWAP5 POP PUSH1 0x20 DUP1 DUP8 ADD CALLDATALOAD SWAP5 POP PUSH1 0x40 DUP8 ADD CALLDATALOAD PUSH8 0xFFFFFFFFFFFFFFFF DUP1 DUP3 GT ISZERO PUSH2 0xC7A JUMPI PUSH1 0x0 DUP1 REVERT JUMPDEST DUP2 DUP10 ADD SWAP2 POP DUP10 PUSH1 0x1F DUP4 ADD SLT PUSH2 0xC8E JUMPI PUSH1 0x0 DUP1 REVERT JUMPDEST DUP2 CALLDATALOAD DUP2 DUP2 GT ISZERO PUSH2 0xCA0 JUMPI PUSH2 0xCA0 PUSH2 0xA3F JUMP JUMPDEST PUSH2 0xCB2 PUSH1 0x1F DUP3 ADD PUSH1 0x1F NOT AND DUP6 ADD PUSH2 0xAA1 JUMP JUMPDEST DUP2 DUP2 MSTORE DUP12 DUP6 DUP4 DUP7 ADD ADD GT ISZERO PUSH2 0xCC6 JUMPI PUSH1 0x0 DUP1 REVERT JUMPDEST DUP2 DUP6 DUP6 ADD DUP7 DUP4 ADD CALLDATACOPY PUSH1 0x0 DUP6 DUP4 DUP4 ADD ADD MSTORE DUP1 SWAP8 POP POP POP PUSH2 0xCE8 DUP11 PUSH1 0x60 DUP12 ADD PUSH2 0xB22 JUMP JUMPDEST SWAP5 POP PUSH2 0x160 DUP10 ADD CALLDATALOAD SWAP3 POP DUP1 DUP4 GT ISZERO PUSH2 0xCFF JUMPI PUSH1 0x0 DUP1 REVERT JUMPDEST POP POP PUSH2 0xD0D DUP9 DUP3 DUP10 ADD PUSH2 0xBBA JUMP JUMPDEST SWAP2 POP POP SWAP3 SWAP6 POP SWAP3 SWAP6 SWAP1 SWAP4 POP JUMP JUMPDEST PUSH1 0x0 DUP1 PUSH1 0x0 PUSH2 0x140 DUP5 DUP7 SUB SLT ISZERO PUSH2 0xD30 JUMPI PUSH1 0x0 DUP1 REVERT JUMPDEST DUP4 CALLDATALOAD SWAP3 POP PUSH2 0xD41 DUP6 PUSH1 0x20 DUP7 ADD PUSH2 0xB22 JUMP JUMPDEST SWAP2 POP PUSH2 0x120 DUP5 ADD CALLDATALOAD PUSH8 0xFFFFFFFFFFFFFFFF DUP2 GT ISZERO PUSH2 0xD5E JUMPI PUSH1 0x0 DUP1 REVERT JUMPDEST PUSH2 0xD6A DUP7 DUP3 DUP8 ADD PUSH2 0xBBA JUMP JUMPDEST SWAP2 POP POP SWAP3 POP SWAP3 POP SWAP3 JUMP JUMPDEST DUP1 CALLDATALOAD PUSH1 0x1 PUSH1 0x1 PUSH1 0xA0 SHL SUB DUP2 AND DUP2 EQ PUSH2 0xD8B JUMPI PUSH1 0x0 DUP1 REVERT JUMPDEST SWAP2 SWAP1 POP JUMP JUMPDEST PUSH1 0x0 PUSH1 0x20 DUP3 DUP5 SUB SLT ISZERO PUSH2 0xDA2 JUMPI PUSH1 0x0 DUP1 REVERT JUMPDEST PUSH2 0xDAB DUP3 PUSH2 0xD74 JUMP JUMPDEST SWAP4 SWAP3 POP POP POP JUMP JUMPDEST PUSH1 0x20 DUP1 DUP3 MSTORE DUP3 MLOAD DUP3 DUP3 ADD DUP2 SWAP1 MSTORE PUSH1 0x0 SWAP2 SWAP1 DUP5 DUP3 ADD SWAP1 PUSH1 0x40 DUP6 ADD SWAP1 DUP5 JUMPDEST DUP2 DUP2 LT ISZERO PUSH2 0xDEA JUMPI DUP4 MLOAD DUP4 MSTORE SWAP3 DUP5 ADD SWAP3 SWAP2 DUP5 ADD SWAP2 PUSH1 0x1 ADD PUSH2 0xDCE JUMP JUMPDEST POP SWAP1 SWAP7 SWAP6 POP POP POP POP POP POP JUMP JUMPDEST DUP8 DUP2 MSTORE PUSH1 0x1 DUP1 PUSH1 0xA0 SHL SUB DUP8 AND PUSH1 0x20 DUP3 ADD MSTORE DUP6 PUSH1 0x40 DUP3 ADD MSTORE DUP5 PUSH1 0x60 DUP3 ADD MSTORE DUP4 PUSH1 0x80 DUP3 ADD MSTORE DUP3 ISZERO ISZERO PUSH1 0xA0 DUP3 ADD MSTORE PUSH1 0xE0 PUSH1 0xC0 DUP3 ADD MSTORE PUSH1 0x0 PUSH2 0xE37 PUSH1 0xE0 DUP4 ADD DUP5 PUSH2 0x98F JUMP JUMPDEST SWAP10 SWAP9 POP POP POP POP POP POP POP POP POP JUMP JUMPDEST PUSH1 0x0 DUP1 PUSH1 0x40 DUP4 DUP6 SUB SLT ISZERO PUSH2 0xE57 JUMPI PUSH1 0x0 DUP1 REVERT JUMPDEST PUSH2 0xE60 DUP4 PUSH2 0xD74 JUMP JUMPDEST SWAP5 PUSH1 0x20 SWAP4 SWAP1 SWAP4 ADD CALLDATALOAD SWAP4 POP POP POP JUMP JUMPDEST PUSH1 0x1 DUP2 DUP2 SHR SWAP1 DUP3 AND DUP1 PUSH2 0xE82 JUMPI PUSH1 0x7F DUP3 AND SWAP2 POP JUMPDEST PUSH1 0x20 DUP3 LT DUP2 SUB PUSH2 0xEA2 JUMPI PUSH4 0x4E487B71 PUSH1 0xE0 SHL PUSH1 0x0 MSTORE PUSH1 0x22 PUSH1 0x4 MSTORE PUSH1 0x24 PUSH1 0x0 REVERT JUMPDEST POP SWAP2 SWAP1 POP JUMP JUMPDEST DUP1 PUSH1 0x0 JUMPDEST PUSH1 0x2 DUP2 LT ISZERO PUSH2 0xECB JUMPI DUP2 MLOAD DUP5 MSTORE PUSH1 0x20 SWAP4 DUP5 ADD SWAP4 SWAP1 SWAP2 ADD SWAP1 PUSH1 0x1 ADD PUSH2 0xEAC JUMP JUMPDEST POP POP POP POP JUMP JUMPDEST PUSH1 0x0 PUSH2 0x120 DUP1 DUP4 ADD PUSH2 0xEE4 DUP5 DUP8 MLOAD PUSH2 0xEA8 JUMP JUMPDEST PUSH1 0x20 DUP1 DUP8 ADD MLOAD PUSH1 0x40 DUP1 DUP8 ADD PUSH1 0x0 JUMPDEST PUSH1 0x2 DUP2 LT ISZERO PUSH2 0xF16 JUMPI PUSH2 0xF06 DUP3 DUP6 MLOAD PUSH2 0xEA8 JUMP JUMPDEST SWAP3 DUP5 ADD SWAP3 SWAP1 DUP3 ADD SWAP1 PUSH1 0x1 ADD PUSH2 0xEF2 JUMP JUMPDEST POP POP DUP9 ADD MLOAD SWAP1 POP PUSH2 0xF2A PUSH1 0xC0 DUP8 ADD DUP3 PUSH2 0xEA8 JUMP JUMPDEST POP PUSH2 0x100 DUP6 ADD SWAP3 SWAP1 SWAP3 MSTORE DUP5 MLOAD SWAP1 DUP2 SWAP1 MSTORE PUSH2 0x140 DUP5 ADD SWAP2 DUP1 DUP7 ADD SWAP2 PUSH1 0x0 JUMPDEST DUP2 DUP2 LT ISZERO PUSH2 0xF63 JUMPI DUP4 MLOAD DUP6 MSTORE SWAP4 DUP3 ADD SWAP4 SWAP3 DUP3 ADD SWAP3 PUSH1 0x1 ADD PUSH2 0xF47 JUMP JUMPDEST POP SWAP3 SWAP8 SWAP7 POP POP POP POP POP POP POP JUMP JUMPDEST PUSH1 0x0 PUSH1 0x20 DUP3 DUP5 SUB SLT ISZERO PUSH2 0xF82 JUMPI PUSH1 0x0 DUP1 REVERT JUMPDEST DUP2 MLOAD DUP1 ISZERO ISZERO DUP2 EQ PUSH2 0xDAB JUMPI PUSH1 0x0 DUP1 REVERT JUMPDEST PUSH1 0x1F DUP3 GT ISZERO PUSH2 0xFDC JUMPI PUSH1 0x0 DUP2 DUP2 MSTORE PUSH1 0x20 DUP2 KECCAK256 PUSH1 0x1F DUP6 ADD PUSH1 0x5 SHR DUP2 ADD PUSH1 0x20 DUP7 LT ISZERO PUSH2 0xFB9 JUMPI POP DUP1 JUMPDEST PUSH1 0x1F DUP6 ADD PUSH1 0x5 SHR DUP3 ADD SWAP2 POP JUMPDEST DUP2 DUP2 LT ISZERO PUSH2 0xFD8 JUMPI DUP3 DUP2 SSTORE PUSH1 0x1 ADD PUSH2 0xFC5 JUMP JUMPDEST POP POP POP JUMPDEST POP POP POP JUMP JUMPDEST DUP2 MLOAD PUSH8 0xFFFFFFFFFFFFFFFF DUP2 GT ISZERO PUSH2 0xFFB JUMPI PUSH2 0xFFB PUSH2 0xA3F JUMP JUMPDEST PUSH2 0x100F DUP2 PUSH2 0x1009 DUP5 SLOAD PUSH2 0xE6E JUMP JUMPDEST DUP5 PUSH2 0xF92 JUMP JUMPDEST PUSH1 0x20 DUP1 PUSH1 0x1F DUP4 GT PUSH1 0x1 DUP2 EQ PUSH2 0x1044 JUMPI PUSH1 0x0 DUP5 ISZERO PUSH2 0x102C JUMPI POP DUP6 DUP4 ADD MLOAD JUMPDEST PUSH1 0x0 NOT PUSH1 0x3 DUP7 SWAP1 SHL SHR NOT AND PUSH1 0x1 DUP6 SWAP1 SHL OR DUP6 SSTORE PUSH2 0xFD8 JUMP JUMPDEST PUSH1 0x0 DUP6 DUP2 MSTORE PUSH1 0x20 DUP2 KECCAK256 PUSH1 0x1F NOT DUP7 AND SWAP2 JUMPDEST DUP3 DUP2 LT ISZERO PUSH2 0x1073 JUMPI DUP9 DUP7 ADD MLOAD DUP3 SSTORE SWAP5 DUP5 ADD SWAP5 PUSH1 0x1 SWAP1 SWAP2 ADD SWAP1 DUP5 ADD PUSH2 0x1054 JUMP JUMPDEST POP DUP6 DUP3 LT ISZERO PUSH2 0x1091 JUMPI DUP8 DUP6 ADD MLOAD PUSH1 0x0 NOT PUSH1 0x3 DUP9 SWAP1 SHL PUSH1 0xF8 AND SHR NOT AND DUP2 SSTORE JUMPDEST POP POP POP POP POP PUSH1 0x1 SWAP1 DUP2 SHL ADD SWAP1 SSTORE POP JUMP JUMPDEST PUSH1 0x0 PUSH1 0x1 DUP3 ADD PUSH2 0x10C1 JUMPI PUSH4 0x4E487B71 PUSH1 0xE0 SHL PUSH1 0x0 MSTORE PUSH1 0x11 PUSH1 0x4 MSTORE PUSH1 0x24 PUSH1 0x0 REVERT JUMPDEST POP PUSH1 0x1 ADD SWAP1 JUMP JUMPDEST PUSH1 0x40 DUP2 MSTORE PUSH1 0x0 PUSH2 0x10DB PUSH1 0x40 DUP4 ADD DUP6 PUSH2 0x98F JUMP JUMPDEST SWAP1 POP DUP3 PUSH1 0x20 DUP4 ADD MSTORE SWAP4 SWAP3 POP POP POP JUMP INVALID LOG2 PUSH5 0x6970667358 0x22 SLT KECCAK256 0xD2 0xCA CHAINID SWAP4 0xAF 0xC0 RETURN 0x4F 0xD3 0xD3 RETURNDATACOPY 0xDC JUMPDEST 0x24 BALANCE 0x29 SHL DUP9 0xE9 0x21 PUSH32 0x79F61A113D212D97DC966564736F6C6343000814003300000000000000000000 "},"methodIdentifiers":{"authenticateDevice(bytes32,(uint256[2],uint256[2][2],uint256[2]),uint256[])":"b90fb138","deactivateDevice(bytes32)":"0766e845","devices(bytes32)":"c5c400de","getDevice(bytes32)":"6a7f745e","getOwnerDevices(address)":"bfb4493f","ownerDevices(address,uint256)":"e46b4786","registerDevice(bytes32,bytes32,string,(uint256[2],uint256[2][2],uint256[2]),uint256[])":"75c0b1dd","totalDevices()":"6121898e","zkpVerifier()":"6aebbd66"}}}}}