{"contracts/ZKPVerifier.sol":{"ZKPVerifier":{"abi":[{"anonymous":false,"inputs":[{"indexed":true,"internalType":"address","name":"verifier","type":"address"},{"indexed":false,"internalType":"bytes32","name":"proofHash","type":"bytes32"},{"indexed":false,"internalType":"bool","name":"isValid","type":"bool"}],"name":"ProofVerified","type":"event"},{"inputs":[],"name":"PROOF_VALIDITY_PERIOD","outputs":[{"internalType":"uint256","name":"","type":"uint256"}],"stateMutability":"view","type":"function"},{"inputs":[{"internalType":"bytes32","name":"proofHash","type":"bytes32"}],"name":"isProofVerified","outputs":[{"internalType":"bool","name":"","type":"bool"}],"stateMutability":"view","type":"function"},{"inputs":[{"internalType":"bytes32","name":"","type":"bytes32"}],"name":"proofTimestamp","outputs":[{"internalType":"uint256","name":"","type":"uint256"}],"stateMutability":"view","type":"function"},{"inputs":[{"internalType":"bytes32","name":"","type":"bytes32"}],"name":"verifiedProofs","outputs":[{"internalType":"bool","name":"","type":"bool"}],"stateMutability":"view","type":"function"},{"inputs":[{"components":[{"internalType":"uint256[2]","name":"a","type":"uint256[2]"},{"internalType":"uint256[2][2]","name":"b","type":"uint256[2][2]"},{"internalType":"uint256[2]","name":"c","type":"uint256[2]"}],"internalType":"struct ZKPVerifier.Proof","name":"proof","type":"tuple"},{"internalType":"uint256[]","name":"publicSignals","type":"uint256[]"}],"name":"verifyProof","outputs":[{"internalType":"bool","name":"","type":"bool"}],"stateMutability":"nonpayable","type":"function"}],"evm":{"bytecode":{"linkReferences":{},"object":"608060405234801561001057600080fd5b506105f2806100206000396000f3fe608060405234801561001057600080fd5b50600436106100575760003560e01c8063176d80c41461005c578063316aaa2d1461009457806342c8fd00146100c25780635bc9ab56146100e55780635ea69cae146100ee575b600080fd5b61007f61006a36600461028a565b60006020819052908152604090205460ff1681565b60405190151581526020015b60405180910390f35b6100b46100a236600461028a565b60016020526000908152604090205481565b60405190815260200161008b565b61007f6100d036600461028a565b60009081526020819052604090205460ff1690565b6100b461012c81565b61007f6100fc3660046103f0565b6000808360000151846020015185604001518560405160200161012294939291906104f1565b60408051601f1981840301815291815281516020928301206000818152600190935291205490915061012c90610158904261059b565b116101a95760405162461bcd60e51b815260206004820152601b60248201527f50726f6f6620616c7265616479207573656420726563656e746c790000000000604482015260640160405180910390fd5b60006101b58585610229565b905080156101e357600082815260208181526040808320805460ff1916600190811790915590915290204290555b60408051838152821515602082015233917fe8ad06fecfe3c13cc84998449b1933654518c4ba62322f6f5f079ca0e8e82233910160405180910390a29150505b92915050565b815151600090158061023e5750825160200151155b1561024b57506000610223565b60408301515115806102635750604083015160200151155b1561027057506000610223565b815160000361028157506000610223565b50600192915050565b60006020828403121561029c57600080fd5b5035919050565b634e487b7160e01b600052604160045260246000fd5b6040516060810167ffffffffffffffff811182821017156102dc576102dc6102a3565b60405290565b6040805190810167ffffffffffffffff811182821017156102dc576102dc6102a3565b600082601f83011261031657600080fd5b61031e6102e2565b80604084018581111561033057600080fd5b845b8181101561034a578035845260209384019301610332565b509095945050505050565b600082601f83011261036657600080fd5b8135602067ffffffffffffffff80831115610383576103836102a3565b8260051b604051601f19603f830116810181811084821117156103a8576103a86102a3565b6040529384528581018301938381019250878511156103c657600080fd5b83870191505b848210156103e5578135835291830191908301906103cc565b979650505050505050565b60008082840361012081121561040557600080fd5b6101008082121561041557600080fd5b61041d6102b9565b91506104298686610305565b8252604086605f87011261043c57600080fd5b6104446102e2565b8060c088018981111561045657600080fd5b8389015b8181101561047b5761046c8b82610305565b8452602090930192840161045a565b5081602087015261048c8a82610305565b938601939093525092945050840135905067ffffffffffffffff8111156104b257600080fd5b6104be85828601610355565b9150509250929050565b8060005b60028110156104eb5781518452602093840193909101906001016104cc565b50505050565b6104fb81866104c8565b600060408083018660005b60028082106105155750610550565b82518460005b8381101561053957825182526020928301929091019060010161051b565b505050928401925060209190910190600101610506565b5050505061056160c08301856104c8565b61010082018351602080860160005b8381101561058c57815185529382019390820190600101610570565b50929998505050505050505050565b8181038181111561022357634e487b7160e01b600052601160045260246000fdfea26469706673582212201c3a7078f3475b22adc9965657eb0f34dc9c1b51911066c83804b901595978c464736f6c63430008140033","opcodes":"PUSH1 0x80 PUSH1 0x40 MSTORE CALLVALUE DUP1 ISZERO PUSH2 0x10 JUMPI PUSH1 0x0 DUP1 REVERT JUMPDEST POP PUSH2 0x5F2 DUP1 PUSH2 0x20 PUSH1 0x0 CODECOPY PUSH1 0x0 RETURN INVALID PUSH1 0x80 PUSH1 0x40 MSTORE CALLVALUE DUP1 ISZERO PUSH2 0x10 JUMPI PUSH1 0x0 DUP1 REVERT JUMPDEST POP PUSH1 0x4 CALLDATASIZE LT PUSH2 0x57 JUMPI PUSH1 0x0 CALLDATALOAD PUSH1 0xE0 SHR DUP1 PUSH4 0x176D80C4 EQ PUSH2 0x5C JUMPI DUP1 PUSH4 0x316AAA2D EQ PUSH2 0x94 JUMPI DUP1 PUSH4 0x42C8FD00 EQ PUSH2 0xC2 JUMPI DUP1 PUSH4 0x5BC9AB56 EQ PUSH2 0xE5 JUMPI DUP1 PUSH4 0x5EA69CAE EQ PUSH2 0xEE JUMPI JUMPDEST PUSH1 0x0 DUP1 REVERT JUMPDEST PUSH2 0x7F PUSH2 0x6A CALLDATASIZE PUSH1 0x4 PUSH2 0x28A JUMP JUMPDEST PUSH1 0x0 PUSH1 0x20 DUP2 SWAP1 MSTORE SWAP1 DUP2 MSTORE PUSH1 0x40 SWAP1 KECCAK256 SLOAD PUSH1 0xFF AND DUP2 JUMP JUMPDEST PUSH1 0x40 MLOAD SWAP1 ISZERO ISZERO DUP2 MSTORE PUSH1 0x20 ADD JUMPDEST PUSH1 0x40 MLOAD DUP1 SWAP2 SUB SWAP1 RETURN JUMPDEST PUSH2 0xB4 PUSH2 0xA2 CALLDATASIZE PUSH1 0x4 PUSH2 0x28A JUMP JUMPDEST PUSH1 0x1 PUSH1 0x20 MSTORE PUSH1 0x0 SWAP1 DUP2 MSTORE PUSH1 0x40 SWAP1 KECCAK256 SLOAD DUP2 JUMP JUMPDEST PUSH1 0x40 MLOAD SWAP1 DUP2 MSTORE PUSH1 0x20 ADD PUSH2 0x8B JUMP JUMPDEST PUSH2 0x7F PUSH2 0xD0 CALLDATASIZE PUSH1 0x4 PUSH2 0x28A JUMP JUMPDEST PUSH1 0x0 SWAP1 DUP2 MSTORE PUSH1 0x20 DUP2 SWAP1 MSTORE PUSH1 0x40 SWAP1 KECCAK256 SLOAD PUSH1 0xFF AND SWAP1 JUMP JUMPDEST PUSH2 0xB4 PUSH2 0x12C DUP2 JUMP JUMPDEST PUSH2 0x7F PUSH2 0xFC CALLDATASIZE PUSH1 0x4 PUSH2 0x3F0 JUMP JUMPDEST PUSH1 0x0 DUP1 DUP4 PUSH1 0x0 ADD MLOAD DUP5 PUSH1 0x20 ADD MLOAD DUP6 PUSH1 0x40 ADD MLOAD DUP6 PUSH1 0x40 MLOAD PUSH1 0x20 ADD PUSH2 0x122 SWAP5 SWAP4 SWAP3 SWAP2 SWAP1 PUSH2 0x4F1 JUMP JUMPDEST PUSH1 0x40 DUP1 MLOAD PUSH1 0x1F NOT DUP2 DUP5 SUB ADD DUP2 MSTORE SWAP2 DUP2 MSTORE DUP2 MLOAD PUSH1 0x20 SWAP3 DUP4 ADD KECCAK256 PUSH1 0x0 DUP2 DUP2 MSTORE PUSH1 0x1 SWAP1 SWAP4 MSTORE SWAP2 KECCAK256 SLOAD SWAP1 SWAP2 POP PUSH2 0x12C SWAP1 PUSH2 0x158 SWAP1 TIMESTAMP PUSH2 0x59B JUMP JUMPDEST GT PUSH2 0x1A9 JUMPI PUSH1 0x40 MLOAD PUSH3 0x461BCD PUSH1 0xE5 SHL DUP2 MSTORE PUSH1 0x20 PUSH1 0x4 DUP3 ADD MSTORE PUSH1 0x1B PUSH1 0x24 DUP3 ADD MSTORE PUSH32 0x50726F6F6620616C7265616479207573656420726563656E746C790000000000 PUSH1 0x44 DUP3 ADD MSTORE PUSH1 0x64 ADD PUSH1 0x40 MLOAD DUP1 SWAP2 SUB SWAP1 REVERT JUMPDEST PUSH1 0x0 PUSH2 0x1B5 DUP6 DUP6 PUSH2 0x229 JUMP JUMPDEST SWAP1 POP DUP1 ISZERO PUSH2 0x1E3 JUMPI PUSH1 0x0 DUP3 DUP2 MSTORE PUSH1 0x20 DUP2 DUP2 MSTORE PUSH1 0x40 DUP1 DUP4 KECCAK256 DUP1 SLOAD PUSH1 0xFF NOT AND PUSH1 0x1 SWAP1 DUP2 OR SWAP1 SWAP2 SSTORE SWAP1 SWAP2 MSTORE SWAP1 KECCAK256 TIMESTAMP SWAP1 SSTORE JUMPDEST PUSH1 0x40 DUP1 MLOAD DUP4 DUP2 MSTORE DUP3 ISZERO ISZERO PUSH1 0x20 DUP3 ADD MSTORE CALLER SWAP2 PUSH32 0xE8AD06FECFE3C13CC84998449B1933654518C4BA62322F6F5F079CA0E8E82233 SWAP2 ADD PUSH1 0x40 MLOAD DUP1 SWAP2 SUB SWAP1 LOG2 SWAP2 POP POP JUMPDEST SWAP3 SWAP2 POP POP JUMP JUMPDEST DUP2 MLOAD MLOAD PUSH1 0x0 SWAP1 ISZERO DUP1 PUSH2 0x23E JUMPI POP DUP3 MLOAD PUSH1 0x20 ADD MLOAD ISZERO JUMPDEST ISZERO PUSH2 0x24B JUMPI POP PUSH1 0x0 PUSH2 0x223 JUMP JUMPDEST PUSH1 0x40 DUP4 ADD MLOAD MLOAD ISZERO DUP1 PUSH2 0x263 JUMPI POP PUSH1 0x40 DUP4 ADD MLOAD PUSH1 0x20 ADD MLOAD ISZERO JUMPDEST ISZERO PUSH2 0x270 JUMPI POP PUSH1 0x0 PUSH2 0x223 JUMP JUMPDEST DUP2 MLOAD PUSH1 0x0 SUB PUSH2 0x281 JUMPI POP PUSH1 0x0 PUSH2 0x223 JUMP JUMPDEST POP PUSH1 0x1 SWAP3 SWAP2 POP POP JUMP JUMPDEST PUSH1 0x0 PUSH1 0x20 DUP3 DUP5 SUB SLT ISZERO PUSH2 0x29C JUMPI PUSH1 0x0 DUP1 REVERT JUMPDEST POP CALLDATALOAD SWAP2 SWAP1 POP JUMP JUMPDEST PUSH4 0x4E487B71 PUSH1 0xE0 SHL PUSH1 0x0 MSTORE PUSH1 0x41 PUSH1 0x4 MSTORE PUSH1 0x24 PUSH1 0x0 REVERT JUMPDEST PUSH1 0x40 MLOAD PUSH1 0x60 DUP2 ADD PUSH8 0xFFFFFFFFFFFFFFFF DUP2 GT DUP3 DUP3 LT OR ISZERO PUSH2 0x2DC JUMPI PUSH2 0x2DC PUSH2 0x2A3 JUMP JUMPDEST PUSH1 0x40 MSTORE SWAP1 JUMP JUMPDEST PUSH1 0x40 DUP1 MLOAD SWAP1 DUP2 ADD PUSH8 0xFFFFFFFFFFFFFFFF DUP2 GT DUP3 DUP3 LT OR ISZERO PUSH2 0x2DC JUMPI PUSH2 0x2DC PUSH2 0x2A3 JUMP JUMPDEST PUSH1 0x0 DUP3 PUSH1 0x1F DUP4 ADD SLT PUSH2 0x316 JUMPI PUSH1 0x0 DUP1 REVERT JUMPDEST PUSH2 0x31E PUSH2 0x2E2 JUMP JUMPDEST DUP1 PUSH1 0x40 DUP5 ADD DUP6 DUP2 GT ISZERO PUSH2 0x330 JUMPI PUSH1 0x0 DUP1 REVERT JUMPDEST DUP5 JUMPDEST DUP2 DUP2 LT ISZERO PUSH2 0x34A JUMPI DUP1 CALLDATALOAD DUP5 MSTORE PUSH1 0x20 SWAP4 DUP5 ADD SWAP4 ADD PUSH2 0x332 JUMP JUMPDEST POP SWAP1 SWAP6 SWAP5 POP POP POP POP POP JUMP JUMPDEST PUSH1 0x0 DUP3 PUSH1 0x1F DUP4 ADD SLT PUSH2 0x366 JUMPI PUSH1 0x0 DUP1 REVERT JUMPDEST DUP2 CALLDATALOAD PUSH1 0x20 PUSH8 0xFFFFFFFFFFFFFFFF DUP1 DUP4 GT ISZERO PUSH2 0x383 JUMPI PUSH2 0x383 PUSH2 0x2A3 JUMP JUMPDEST DUP3 PUSH1 0x5 SHL PUSH1 0x40 MLOAD PUSH1 0x1F NOT PUSH1 0x3F DUP4 ADD AND DUP2 ADD DUP2 DUP2 LT DUP5 DUP3 GT OR ISZERO PUSH2 0x3A8 JUMPI PUSH2 0x3A8 PUSH2 0x2A3 JUMP JUMPDEST PUSH1 0x40 MSTORE SWAP4 DUP5 MSTORE DUP6 DUP2 ADD DUP4 ADD SWAP4 DUP4 DUP2 ADD SWAP3 POP DUP8 DUP6 GT ISZERO PUSH2 0x3C6 JUMPI PUSH1 0x0 DUP1 REVERT JUMPDEST DUP4 DUP8 ADD SWAP2 POP JUMPDEST DUP5 DUP3 LT ISZERO PUSH2 0x3E5 JUMPI DUP2 CALLDATALOAD DUP4 MSTORE SWAP2 DUP4 ADD SWAP2 SWAP1 DUP4 ADD SWAP1 PUSH2 0x3CC JUMP JUMPDEST SWAP8 SWAP7 POP POP POP POP POP POP POP JUMP JUMPDEST PUSH1 0x0 DUP1 DUP3 DUP5 SUB PUSH2 0x120 DUP2 SLT ISZERO PUSH2 0x405 JUMPI PUSH1 0x0 DUP1 REVERT JUMPDEST PUSH2 0x100 DUP1 DUP3 SLT ISZERO PUSH2 0x415 JUMPI PUSH1 0x0 DUP1 REVERT JUMPDEST PUSH2 0x41D PUSH2 0x2B9 JUMP JUMPDEST SWAP2 POP PUSH2 0x429 DUP7 DUP7 PUSH2 0x305 JUMP JUMPDEST DUP3 MSTORE PUSH1 0x40 DUP7 PUSH1 0x5F DUP8 ADD SLT PUSH2 0x43C JUMPI PUSH1 0x0 DUP1 REVERT JUMPDEST PUSH2 0x444 PUSH2 0x2E2 JUMP JUMPDEST DUP1 PUSH1 0xC0 DUP9 ADD DUP10 DUP2 GT ISZERO PUSH2 0x456 JUMPI PUSH1 0x0 DUP1 REVERT JUMPDEST DUP4 DUP10 ADD JUMPDEST DUP2 DUP2 LT ISZERO PUSH2 0x47B JUMPI PUSH2 0x46C DUP12 DUP3 PUSH2 0x305 JUMP JUMPDEST DUP5 MSTORE PUSH1 0x20 SWAP1 SWAP4 ADD SWAP3 DUP5 ADD PUSH2 0x45A JUMP JUMPDEST POP DUP2 PUSH1 0x20 DUP8 ADD MSTORE PUSH2 0x48C DUP11 DUP3 PUSH2 0x305 JUMP JUMPDEST SWAP4 DUP7 ADD SWAP4 SWAP1 SWAP4 MSTORE POP SWAP3 SWAP5 POP POP DUP5 ADD CALLDATALOAD SWAP1 POP PUSH8 0xFFFFFFFFFFFFFFFF DUP2 GT ISZERO PUSH2 0x4B2 JUMPI PUSH1 0x0 DUP1 REVERT JUMPDEST PUSH2 0x4BE DUP6 DUP3 DUP7 ADD PUSH2 0x355 JUMP JUMPDEST SWAP2 POP POP SWAP3 POP SWAP3 SWAP1 POP JUMP JUMPDEST DUP1 PUSH1 0x0 JUMPDEST PUSH1 0x2 DUP2 LT ISZERO PUSH2 0x4EB JUMPI DUP2 MLOAD DUP5 MSTORE PUSH1 0x20 SWAP4 DUP5 ADD SWAP4 SWAP1 SWAP2 ADD SWAP1 PUSH1 0x1 ADD PUSH2 0x4CC JUMP JUMPDEST POP POP POP POP JUMP JUMPDEST PUSH2 0x4FB DUP2 DUP7 PUSH2 0x4C8 JUMP JUMPDEST PUSH1 0x0 PUSH1 0x40 DUP1 DUP4 ADD DUP7 PUSH1 0x0 JUMPDEST PUSH1 0x2 DUP1 DUP3 LT PUSH2 0x515 JUMPI POP PUSH2 0x550 JUMP JUMPDEST DUP3 MLOAD DUP5 PUSH1 0x0 JUMPDEST DUP4 DUP2 LT ISZERO PUSH2 0x539 JUMPI DUP3 MLOAD DUP3 MSTORE PUSH1 0x20 SWAP3 DUP4 ADD SWAP3 SWAP1 SWAP2 ADD SWAP1 PUSH1 0x1 ADD PUSH2 0x51B JUMP JUMPDEST POP POP POP SWAP3 DUP5 ADD SWAP3 POP PUSH1 0x20 SWAP2 SWAP1 SWAP2 ADD SWAP1 PUSH1 0x1 ADD PUSH2 0x506 JUMP JUMPDEST POP POP POP POP PUSH2 0x561 PUSH1 0xC0 DUP4 ADD DUP6 PUSH2 0x4C8 JUMP JUMPDEST PUSH2 0x100 DUP3 ADD DUP4 MLOAD PUSH1 0x20 DUP1 DUP7 ADD PUSH1 0x0 JUMPDEST DUP4 DUP2 LT ISZERO PUSH2 0x58C JUMPI DUP2 MLOAD DUP6 MSTORE SWAP4 DUP3 ADD SWAP4 SWAP1 DUP3 ADD SWAP1 PUSH1 0x1 ADD PUSH2 0x570 JUMP JUMPDEST POP SWAP3 SWAP10 SWAP9 POP POP POP POP POP POP POP POP POP JUMP JUMPDEST DUP2 DUP2 SUB DUP2 DUP2 GT ISZERO PUSH2 0x223 JUMPI PUSH4 0x4E487B71 PUSH1 0xE0 SHL PUSH1 0x0 MSTORE PUSH1 0x11 PUSH1 0x4 MSTORE PUSH1 0x24 PUSH1 0x0 REVERT INVALID LOG2 PUSH5 0x6970667358 0x22 SLT KECCAK256 SHR GASPRICE PUSH17 0x78F3475B22ADC9965657EB0F34DC9C1B51 SWAP2 LT PUSH7 0xC83804B9015959 PUSH25 0xC464736F6C6343000814003300000000000000000000000000 "},"methodIdentifiers":{"PROOF_VALIDITY_PERIOD()":"5bc9ab56","isProofVerified(bytes32)":"42c8fd00","proofTimestamp(bytes32)":"316aaa2d","verifiedProofs(bytes32)":"176d80c4","verifyProof((uint256[2],uint256[2][2],uint256[2]),uint256[])":"5ea69cae"}}}}}