{
  "_format": "hh-sol-artifact-1",
  "contractName": "ZKPVerifier",
  "sourceName": "contracts/ZKPVerifier.sol",
  "abi": [
    {
      "anonymous": false,
      "inputs": [
        {
          "indexed": true,
          "internalType": "address",
          "name": "verifier",
          "type": "address"
        },
        {
          "indexed": false,
          "internalType": "bytes32",
          "name": "proofHash",
          "type": "bytes32"
        },
        {
          "indexed": false,
          "internalType": "bool",
          "name": "isValid",
          "type": "bool"
        }
      ],
      "name": "ProofVerified",
      "type": "event"
    },
    {
      "inputs": [],
      "name": "PROOF_VALIDITY_PERIOD",
      "outputs": [
        {
          "internalType": "uint256",
          "name": "",
          "type": "uint256"
        }
      ],
      "stateMutability": "view",
      "type": "function"
    },
    {
      "inputs": [
        {
          "internalType": "bytes32",
          "name": "proofHash",
          "type": "bytes32"
        }
      ],
      "name": "isProofVerified",
      "outputs": [
        {
          "internalType": "bool",
          "name": "",
          "type": "bool"
        }
      ],
      "stateMutability": "view",
      "type": "function"
    },
    {
      "inputs": [
        {
          "internalType": "bytes32",
          "name": "",
          "type": "bytes32"
        }
      ],
      "name": "proofTimestamp",
      "outputs": [
        {
          "internalType": "uint256",
          "name": "",
          "type": "uint256"
        }
      ],
      "stateMutability": "view",
      "type": "function"
    },
    {
      "inputs": [
        {
          "internalType": "bytes32",
          "name": "",
          "type": "bytes32"
        }
      ],
      "name": "verifiedProofs",
      "outputs": [
        {
          "internalType": "bool",
          "name": "",
          "type": "bool"
        }
      ],
      "stateMutability": "view",
      "type": "function"
    },
    {
      "inputs": [
        {
          "components": [
            {
              "internalType": "uint256[2]",
              "name": "a",
              "type": "uint256[2]"
            },
            {
              "internalType": "uint256[2][2]",
              "name": "b",
              "type": "uint256[2][2]"
            },
            {
              "internalType": "uint256[2]",
              "name": "c",
              "type": "uint256[2]"
            }
          ],
          "internalType": "struct ZKPVerifier.Proof",
          "name": "proof",
          "type": "tuple"
        },
        {
          "internalType": "uint256[]",
          "name": "publicSignals",
          "type": "uint256[]"
        }
      ],
      "name": "verifyProof",
      "outputs": [
        {
          "internalType": "bool",
          "name": "",
          "type": "bool"
        }
      ],
      "stateMutability": "nonpayable",
      "type": "function"
    }
  ],
  "bytecode": "0x608060405234801561001057600080fd5b506105f2806100206000396000f3fe608060405234801561001057600080fd5b50600436106100575760003560e01c8063176d80c41461005c578063316aaa2d1461009457806342c8fd00146100c25780635bc9ab56146100e55780635ea69cae146100ee575b600080fd5b61007f61006a36600461028a565b60006020819052908152604090205460ff1681565b60405190151581526020015b60405180910390f35b6100b46100a236600461028a565b60016020526000908152604090205481565b60405190815260200161008b565b61007f6100d036600461028a565b60009081526020819052604090205460ff1690565b6100b461012c81565b61007f6100fc3660046103f0565b6000808360000151846020015185604001518560405160200161012294939291906104f1565b60408051601f1981840301815291815281516020928301206000818152600190935291205490915061012c90610158904261059b565b116101a95760405162461bcd60e51b815260206004820152601b60248201527f50726f6f6620616c7265616479207573656420726563656e746c790000000000604482015260640160405180910390fd5b60006101b58585610229565b905080156101e357600082815260208181526040808320805460ff1916600190811790915590915290204290555b60408051838152821515602082015233917fe8ad06fecfe3c13cc84998449b1933654518c4ba62322f6f5f079ca0e8e82233910160405180910390a29150505b92915050565b815151600090158061023e5750825160200151155b1561024b57506000610223565b60408301515115806102635750604083015160200151155b1561027057506000610223565b815160000361028157506000610223565b50600192915050565b60006020828403121561029c57600080fd5b5035919050565b634e487b7160e01b600052604160045260246000fd5b6040516060810167ffffffffffffffff811182821017156102dc576102dc6102a3565b60405290565b6040805190810167ffffffffffffffff811182821017156102dc576102dc6102a3565b600082601f83011261031657600080fd5b61031e6102e2565b80604084018581111561033057600080fd5b845b8181101561034a578035845260209384019301610332565b509095945050505050565b600082601f83011261036657600080fd5b8135602067ffffffffffffffff80831115610383576103836102a3565b8260051b604051601f19603f830116810181811084821117156103a8576103a86102a3565b6040529384528581018301938381019250878511156103c657600080fd5b83870191505b848210156103e5578135835291830191908301906103cc565b979650505050505050565b60008082840361012081121561040557600080fd5b6101008082121561041557600080fd5b61041d6102b9565b91506104298686610305565b8252604086605f87011261043c57600080fd5b6104446102e2565b8060c088018981111561045657600080fd5b8389015b8181101561047b5761046c8b82610305565b8452602090930192840161045a565b5081602087015261048c8a82610305565b938601939093525092945050840135905067ffffffffffffffff8111156104b257600080fd5b6104be85828601610355565b9150509250929050565b8060005b60028110156104eb5781518452602093840193909101906001016104cc565b50505050565b6104fb81866104c8565b600060408083018660005b60028082106105155750610550565b82518460005b8381101561053957825182526020928301929091019060010161051b565b505050928401925060209190910190600101610506565b5050505061056160c08301856104c8565b61010082018351602080860160005b8381101561058c57815185529382019390820190600101610570565b50929998505050505050505050565b8181038181111561022357634e487b7160e01b600052601160045260246000fdfea26469706673582212201c3a7078f3475b22adc9965657eb0f34dc9c1b51911066c83804b901595978c464736f6c63430008140033",
  "linkReferences": {},
  "deployedLinkReferences": {}
}